{
  "contractName": "RealEstate",
  "abi": [
    {
      "constant": true,
      "inputs": [
        {
          "name": "",
          "type": "uint256"
        }
      ],
      "name": "tokenToCert",
      "outputs": [
        {
          "name": "",
          "type": "string"
        }
      ],
      "payable": false,
      "stateMutability": "view",
      "type": "function"
    },
    {
      "constant": true,
      "inputs": [],
      "name": "certificateCount",
      "outputs": [
        {
          "name": "",
          "type": "uint256"
        }
      ],
      "payable": false,
      "stateMutability": "view",
      "type": "function"
    },
    {
      "constant": true,
      "inputs": [
        {
          "name": "",
          "type": "uint256"
        }
      ],
      "name": "tokenToNotary",
      "outputs": [
        {
          "name": "",
          "type": "address"
        }
      ],
      "payable": false,
      "stateMutability": "view",
      "type": "function"
    },
    {
      "constant": true,
      "inputs": [
        {
          "name": "",
          "type": "uint256"
        }
      ],
      "name": "tokenToState",
      "outputs": [
        {
          "name": "",
          "type": "uint8"
        }
      ],
      "payable": false,
      "stateMutability": "view",
      "type": "function"
    },
    {
      "inputs": [
        {
          "name": "_roleContract",
          "type": "address"
        }
      ],
      "payable": false,
      "stateMutability": "nonpayable",
      "type": "constructor"
    },
    {
      "anonymous": false,
      "inputs": [
        {
          "indexed": false,
          "name": "idCertificate",
          "type": "uint256"
        },
        {
          "indexed": false,
          "name": "owners",
          "type": "address[]"
        },
        {
          "indexed": false,
          "name": "notary",
          "type": "address"
        }
      ],
      "name": "NewCertificate",
      "type": "event"
    },
    {
      "anonymous": false,
      "inputs": [
        {
          "indexed": false,
          "name": "oldOwner",
          "type": "address[]"
        },
        {
          "indexed": false,
          "name": "newOwner",
          "type": "address[]"
        },
        {
          "indexed": false,
          "name": "idCertificate",
          "type": "uint256"
        }
      ],
      "name": "Transfer",
      "type": "event"
    },
    {
      "anonymous": false,
      "inputs": [
        {
          "indexed": false,
          "name": "idCertificate",
          "type": "uint256"
        },
        {
          "indexed": false,
          "name": "owner",
          "type": "address"
        },
        {
          "indexed": false,
          "name": "state",
          "type": "uint8"
        }
      ],
      "name": "Activate",
      "type": "event"
    },
    {
      "constant": true,
      "inputs": [
        {
          "name": "_id",
          "type": "uint256"
        }
      ],
      "name": "getOwnersOf",
      "outputs": [
        {
          "name": "",
          "type": "address[]"
        }
      ],
      "payable": false,
      "stateMutability": "view",
      "type": "function"
    },
    {
      "constant": true,
      "inputs": [
        {
          "name": "_id",
          "type": "uint256"
        }
      ],
      "name": "getOwnerApproved",
      "outputs": [
        {
          "name": "",
          "type": "address[]"
        }
      ],
      "payable": false,
      "stateMutability": "view",
      "type": "function"
    },
    {
      "constant": false,
      "inputs": [
        {
          "name": "_contractAddress",
          "type": "address"
        }
      ],
      "name": "setRoleContractAddress",
      "outputs": [],
      "payable": false,
      "stateMutability": "nonpayable",
      "type": "function"
    },
    {
      "constant": false,
      "inputs": [
        {
          "name": "_certificate",
          "type": "string"
        },
        {
          "name": "_owners",
          "type": "address[]"
        }
      ],
      "name": "createCertificate",
      "outputs": [],
      "payable": false,
      "stateMutability": "nonpayable",
      "type": "function"
    },
    {
      "constant": false,
      "inputs": [
        {
          "name": "_id",
          "type": "uint256"
        }
      ],
      "name": "activate",
      "outputs": [],
      "payable": false,
      "stateMutability": "nonpayable",
      "type": "function"
    },
    {
      "constant": false,
      "inputs": [
        {
          "name": "_idCertificate",
          "type": "uint256"
        },
        {
          "name": "_newOwners",
          "type": "address[]"
        }
      ],
      "name": "transferOwnership",
      "outputs": [],
      "payable": false,
      "stateMutability": "nonpayable",
      "type": "function"
    },
    {
      "constant": true,
      "inputs": [
        {
          "name": "_id",
          "type": "uint256"
        }
      ],
      "name": "isActivated",
      "outputs": [
        {
          "name": "",
          "type": "bool"
        }
      ],
      "payable": false,
      "stateMutability": "view",
      "type": "function"
    },
    {
      "constant": true,
      "inputs": [
        {
          "name": "_idCertificate",
          "type": "uint256"
        }
      ],
      "name": "getOwnersOfCert",
      "outputs": [
        {
          "name": "",
          "type": "address[]"
        }
      ],
      "payable": false,
      "stateMutability": "view",
      "type": "function"
    },
    {
      "constant": true,
      "inputs": [
        {
          "name": "_idCertificate",
          "type": "uint256"
        }
      ],
      "name": "getRepresentativeOfOwners",
      "outputs": [
        {
          "name": "",
          "type": "address"
        }
      ],
      "payable": false,
      "stateMutability": "view",
      "type": "function"
    },
    {
      "constant": true,
      "inputs": [
        {
          "name": "_idCertificate",
          "type": "uint256"
        }
      ],
      "name": "getStateOfCert",
      "outputs": [
        {
          "name": "",
          "type": "uint8"
        }
      ],
      "payable": false,
      "stateMutability": "view",
      "type": "function"
    },
    {
      "constant": false,
      "inputs": [
        {
          "name": "_idCertificate",
          "type": "uint256"
        }
      ],
      "name": "setStateOfCertInTransaction",
      "outputs": [],
      "payable": false,
      "stateMutability": "nonpayable",
      "type": "function"
    },
    {
      "constant": false,
      "inputs": [
        {
          "name": "_idCertificate",
          "type": "uint256"
        }
      ],
      "name": "setStateOfCertOutTransaction",
      "outputs": [],
      "payable": false,
      "stateMutability": "nonpayable",
      "type": "function"
    }
  ],
  "bytecode": "0x608060405234801561001057600080fd5b50604051602080611ca98339810180604052602081101561003057600080fd5b810190808051906020019092919050505080600160006101000a81548173ffffffffffffffffffffffffffffffffffffffff021916908373ffffffffffffffffffffffffffffffffffffffff160217905550336000806101000a81548173ffffffffffffffffffffffffffffffffffffffff021916908373ffffffffffffffffffffffffffffffffffffffff16021790555050611bd7806100d26000396000f3fe608060405234801561001057600080fd5b506004361061011d576000357c010000000000000000000000000000000000000000000000000000000090048063b260c42a116100b4578063eacfd6ed11610083578063eacfd6ed14610582578063eb768cbd14610605578063ebb0f0a914610754578063fa63fac7146107825761011d565b8063b260c42a146103e0578063bfb5d8fa1461040e578063cef6d1d514610491578063cfc2c62f146105145761011d565b8063441b777b116100f0578063441b777b1461026957806352d7b89c146103105780636c6d19b51461032e57806374be166e146103725761011d565b80631a0ae94f146101225780632715ce86146101725780632861ebd2146101f557806331809dcf14610223575b600080fd5b61014e6004803603602081101561013857600080fd5b81019080803590602001909291905050506107d2565b6040518082600281111561015e57fe5b60ff16815260200191505060405180910390f35b6101f36004803603604081101561018857600080fd5b8101908080359060200190929190803590602001906401000000008111156101af57600080fd5b8201836020820111156101c157600080fd5b803590602001918460208302840111640100000000831117156101e357600080fd5b90919293919293905050506107fc565b005b6102216004803603602081101561020b57600080fd5b8101908080359060200190929190505050610b0c565b005b61024f6004803603602081101561023957600080fd5b8101908080359060200190929190505050610b44565b604051808215151515815260200191505060405180910390f35b6102956004803603602081101561027f57600080fd5b8101908080359060200190929190505050610b87565b6040518080602001828103825283818151815260200191508051906020019080838360005b838110156102d55780820151818401526020810190506102ba565b50505050905090810190601f1680156103025780820380516001836020036101000a031916815260200191505b509250505060405180910390f35b610318610c37565b6040518082815260200191505060405180910390f35b6103706004803603602081101561034457600080fd5b81019080803573ffffffffffffffffffffffffffffffffffffffff169060200190929190505050610c3d565b005b61039e6004803603602081101561038857600080fd5b8101908080359060200190929190505050610d45565b604051808273ffffffffffffffffffffffffffffffffffffffff1673ffffffffffffffffffffffffffffffffffffffff16815260200191505060405180910390f35b61040c600480360360208110156103f657600080fd5b8101908080359060200190929190505050610d78565b005b61043a6004803603602081101561042457600080fd5b81019080803590602001909291905050506111a2565b6040518080602001828103825283818151815260200191508051906020019060200280838360005b8381101561047d578082015181840152602081019050610462565b505050509050019250505060405180910390f35b6104bd600480360360208110156104a757600080fd5b8101908080359060200190929190505050611243565b6040518080602001828103825283818151815260200191508051906020019060200280838360005b838110156105005780820151818401526020810190506104e5565b505050509050019250505060405180910390f35b6105406004803603602081101561052a57600080fd5b81019080803590602001909291905050506112e4565b604051808273ffffffffffffffffffffffffffffffffffffffff1673ffffffffffffffffffffffffffffffffffffffff16815260200191505060405180910390f35b6105ae6004803603602081101561059857600080fd5b8101908080359060200190929190505050611339565b6040518080602001828103825283818151815260200191508051906020019060200280838360005b838110156105f15780820151818401526020810190506105d6565b505050509050019250505060405180910390f35b6107526004803603604081101561061b57600080fd5b810190808035906020019064010000000081111561063857600080fd5b82018360208201111561064a57600080fd5b8035906020019184600183028401116401000000008311171561066c57600080fd5b91908080601f016020809104026020016040519081016040528093929190818152602001838380828437600081840152601f19601f820116905080830192505050505050509192919290803590602001906401000000008111156106cf57600080fd5b8201836020820111156106e157600080fd5b8035906020019184602083028401116401000000008311171561070357600080fd5b919080806020026020016040519081016040528093929190818152602001838360200280828437600081840152601f19601f8201169050808301925050505050505091929192905050506113da565b005b6107806004803603602081101561076a57600080fd5b8101908080359060200190929190505050611730565b005b6107ae6004803603602081101561079857600080fd5b8101908080359060200190929190505050611768565b604051808260028111156107be57fe5b60ff16815260200191505060405180910390f35b60006005600083815260200190815260200160002060009054906101000a900460ff169050919050565b8260028081111561080957fe5b6005600083815260200190815260200160002060009054906101000a900460ff16600281111561083557fe5b14151561088d576040517f08c379a000000000000000000000000000000000000000000000000000000000815260040180806020018281038252602b815260200180611a65602b913960400191505060405180910390fd5b6000838390501115156108eb576040517f08c379a0000000000000000000000000000000000000000000000000000000008152600401808060200182810382526030815260200180611acd6030913960400191505060405180910390fd5b60606003600086815260200190815260200160002080548060200260200160405190810160405280929190818152602001828054801561098057602002820191906000526020600020905b8160009054906101000a900473ffffffffffffffffffffffffffffffffffffffff1673ffffffffffffffffffffffffffffffffffffffff1681526020019060010190808311610936575b50505050509050600081600081518110151561099857fe5b9060200190602002015190508073ffffffffffffffffffffffffffffffffffffffff163273ffffffffffffffffffffffffffffffffffffffff16141515610a2a576040517f08c379a000000000000000000000000000000000000000000000000000000000815260040180806020018281038252603d815260200180611a90603d913960400191505060405180910390fd5b8484600360008981526020019081526020016000209190610a4c929190611831565b507f7468a14ef996ad72aa87d61c6f6313a1228d92157a9b1e2380cf509bf7d3706482868689604051808060200180602001848152602001838103835287818151815260200191508051906020019060200280838360005b83811015610abf578082015181840152602081019050610aa4565b505050509050018381038252868682818152602001925060200280828437600081840152601f19601f820116905080830192505050965050505050505060405180910390a1505050505050565b60026005600083815260200190815260200160002060006101000a81548160ff02191690836002811115610b3c57fe5b021790555050565b600060016002811115610b5357fe5b6005600084815260200190815260200160002060009054906101000a900460ff166002811115610b7f57fe5b149050919050565b60076020528060005260406000206000915090508054600181600116156101000203166002900480601f016020809104026020016040519081016040528092919081815260200182805460018160011615610100020316600290048015610c2f5780601f10610c0457610100808354040283529160200191610c2f565b820191906000526020600020905b815481529060010190602001808311610c1257829003601f168201915b505050505081565b60025481565b3373ffffffffffffffffffffffffffffffffffffffff166000809054906101000a900473ffffffffffffffffffffffffffffffffffffffff1673ffffffffffffffffffffffffffffffffffffffff16141515610d01576040517f08c379a00000000000000000000000000000000000000000000000000000000081526004018080602001828103825260198152602001807f5265616c4573746174653a2052657175697265206f776e65720000000000000081525060200191505060405180910390fd5b80600160006101000a81548173ffffffffffffffffffffffffffffffffffffffff021916908373ffffffffffffffffffffffffffffffffffffffff16021790555050565b60066020528060005260406000206000915054906101000a900473ffffffffffffffffffffffffffffffffffffffff1681565b80610e1a60036000838152602001908152602001600020805480602002602001604051908101604052809291908181526020018280548015610e0f57602002820191906000526020600020905b8160009054906101000a900473ffffffffffffffffffffffffffffffffffffffff1673ffffffffffffffffffffffffffffffffffffffff1681526020019060010190808311610dc5575b505050505033611788565b1515610e71576040517f08c379a000000000000000000000000000000000000000000000000000000000815260040180806020018281038252602b815260200180611b38602b913960400191505060405180910390fd5b8160006002811115610e7f57fe5b6005600083815260200190815260200160002060009054906101000a900460ff166002811115610eab57fe5b141515610f03576040517f08c379a0000000000000000000000000000000000000000000000000000000008152600401808060200182810382526025815260200180611b876025913960400191505060405180910390fd5b610fa460046000858152602001908152602001600020805480602002602001604051908101604052809291908181526020018280548015610f9957602002820191906000526020600020905b8160009054906101000a900473ffffffffffffffffffffffffffffffffffffffff1673ffffffffffffffffffffffffffffffffffffffff1681526020019060010190808311610f4f575b505050505033611788565b151515610ffc576040517f08c379a0000000000000000000000000000000000000000000000000000000008152600401808060200182810382526024815260200180611b636024913960400191505060405180910390fd5b600460008481526020019081526020016000203390806001815401808255809150509060018203906000526020600020016000909192909190916101000a81548173ffffffffffffffffffffffffffffffffffffffff021916908373ffffffffffffffffffffffffffffffffffffffff160217905550506003600084815260200190815260200160002080549050600460008581526020019081526020016000208054905014156110fc5760016005600085815260200190815260200160002060006101000a81548160ff021916908360028111156110d757fe5b02179055506004600084815260200190815260200160002060006110fb91906118d1565b5b7fe9d73e2004f3048a08f0b9e825d2618190a50fe92f987d3b76d90fc3d998369d83336005600087815260200190815260200160002060009054906101000a900460ff16604051808481526020018373ffffffffffffffffffffffffffffffffffffffff1673ffffffffffffffffffffffffffffffffffffffff16815260200182600281111561118857fe5b60ff168152602001935050505060405180910390a1505050565b60606003600083815260200190815260200160002080548060200260200160405190810160405280929190818152602001828054801561123757602002820191906000526020600020905b8160009054906101000a900473ffffffffffffffffffffffffffffffffffffffff1673ffffffffffffffffffffffffffffffffffffffff16815260200190600101908083116111ed575b50505050509050919050565b6060600460008381526020019081526020016000208054806020026020016040519081016040528092919081815260200182805480156112d857602002820191906000526020600020905b8160009054906101000a900473ffffffffffffffffffffffffffffffffffffffff1673ffffffffffffffffffffffffffffffffffffffff168152602001906001019080831161128e575b50505050509050919050565b600060036000838152602001908152602001600020600081548110151561130757fe5b9060005260206000200160009054906101000a900473ffffffffffffffffffffffffffffffffffffffff169050919050565b6060600360008381526020019081526020016000208054806020026020016040519081016040528092919081815260200182805480156113ce57602002820191906000526020600020905b8160009054906101000a900473ffffffffffffffffffffffffffffffffffffffff1673ffffffffffffffffffffffffffffffffffffffff1681526020019060010190808311611384575b50505050509050919050565b600160009054906101000a900473ffffffffffffffffffffffffffffffffffffffff1673ffffffffffffffffffffffffffffffffffffffff166395a8c58d3360016040518363ffffffff167c0100000000000000000000000000000000000000000000000000000000028152600401808373ffffffffffffffffffffffffffffffffffffffff1673ffffffffffffffffffffffffffffffffffffffff1681526020018260ff1681526020019250505060206040518083038186803b1580156114a157600080fd5b505afa1580156114b5573d6000803e3d6000fd5b505050506040513d60208110156114cb57600080fd5b81019080805190602001909291905050501515611550576040517f08c379a000000000000000000000000000000000000000000000000000000000815260040180806020018281038252601a8152602001807f5265616c4573746174653a2052657175697265206e6f7461727900000000000081525060200191505060405180910390fd5b61155a8133611788565b1515156115b2576040517f08c379a000000000000000000000000000000000000000000000000000000000815260040180806020018281038252603b815260200180611afd603b913960400191505060405180910390fd5b6115c8600160025461181390919063ffffffff16565b6002819055508160076000600254815260200190815260200160002090805190602001906115f79291906118f2565b50806003600060025481526020019081526020016000209080519060200190611621929190611972565b503360066000600254815260200190815260200160002060006101000a81548173ffffffffffffffffffffffffffffffffffffffff021916908373ffffffffffffffffffffffffffffffffffffffff1602179055507f66b934d6acb43948a1b400950d4b56902890535b44076e2a7d0d2e72ea2b2b19600254823360405180848152602001806020018373ffffffffffffffffffffffffffffffffffffffff1673ffffffffffffffffffffffffffffffffffffffff168152602001828103825284818151815260200191508051906020019060200280838360005b838110156117175780820151818401526020810190506116fc565b5050505090500194505050505060405180910390a15050565b60016005600083815260200190815260200160002060006101000a81548160ff0219169083600281111561176057fe5b021790555050565b60056020528060005260406000206000915054906101000a900460ff1681565b6000808351905060008090505b818160ff16101561180657848160ff168151811015156117b157fe5b9060200190602002015173ffffffffffffffffffffffffffffffffffffffff168473ffffffffffffffffffffffffffffffffffffffff1614156117f95760019250505061180d565b8080600101915050611795565b5060009150505b92915050565b600080828401905083811015151561182757fe5b8091505092915050565b8280548282559060005260206000209081019282156118c0579160200282015b828111156118bf57823573ffffffffffffffffffffffffffffffffffffffff168260006101000a81548173ffffffffffffffffffffffffffffffffffffffff021916908373ffffffffffffffffffffffffffffffffffffffff16021790555091602001919060010190611851565b5b5090506118cd91906119fc565b5090565b50805460008255906000526020600020908101906118ef9190611a3f565b50565b828054600181600116156101000203166002900490600052602060002090601f016020900481019282601f1061193357805160ff1916838001178555611961565b82800160010185558215611961579182015b82811115611960578251825591602001919060010190611945565b5b50905061196e9190611a3f565b5090565b8280548282559060005260206000209081019282156119eb579160200282015b828111156119ea5782518260006101000a81548173ffffffffffffffffffffffffffffffffffffffff021916908373ffffffffffffffffffffffffffffffffffffffff16021790555091602001919060010190611992565b5b5090506119f891906119fc565b5090565b611a3c91905b80821115611a3857600081816101000a81549073ffffffffffffffffffffffffffffffffffffffff021916905550600101611a02565b5090565b90565b611a6191905b80821115611a5d576000816000905550600101611a45565b5090565b9056fe5265616c4573746174653a205265717569726520737461746520697320694e5f5452414e53414354494f4e5265616c457374617465287472616e73666572293a205265717569726520726570726573656e746174697665206f66206f776e6572206f6620636572745265616c457374617465287472616e73666572293a2072657175697265206f6e65206f776e6572206174206c656173745265616c4573746174653a20596f7520617265206e6f7420616c6c6f77656420746f2063726561746520796f7572206f776e2070726f70657274795265616c4573746174653a20596f75277265206e6f74206f776e6572206f662063657274696669636174655265616c4573746174653a204163636f756e7420616c726561647920617070726f7665645265616c4573746174653a20526571756972652073746174652069732050454e4444494e47a165627a7a72305820aef33616e50f2c9d4ecfbe87bfdc113f84f766f9e955d711a141d3f159b35bd60029",
  "source": "pragma solidity >=0.4.21 <0.7.0;\nimport \"./SafeMath.sol\";\n\ninterface IRBAC {\n    /**\n     * @param _account account to check roleContract\n     * @param _role uint(enum) => uint8 0: SUPER_ADMIN, 1: NOTARY\n     * @return bool\n     */\n    function hasRole(address _account, uint8 _role)\n        external\n        view\n        returns (bool);\n}\n\n/**\n * @title RealEstate\n * @dev Real estate management and transaction\n */\n\ncontract RealEstate {\n    using SafeMath for uint256;\n    // ------------------------------ Variables ------------------------------\n    address private owner; // owner, who deploy this smart contract\n    IRBAC roleContract; // reference to contract RoleBasedAcl\n    // number of certificate (token id)\n    uint256 public certificateCount;\n    // State of certificate\n    enum State {PENDDING, ACTIVATED, IN_TRANSACTION} //sate of token. 0: PENDING - 1: ACTIVATE - 2: IN_TRANSACTION\n\n    // mapping token to owners\n    mapping(uint256 => address[]) tokenToOwners;\n    // mapping token to owner approved (activate || sell)\n    mapping(uint256 => address[]) tokenToApprovals;\n    // mapping token to state of token\n    mapping(uint256 => State) public tokenToState; // Default: 0 => 'PENDDING'\n    // mapping token to notary\n    mapping(uint256 => address) public tokenToNotary;\n    // mapping token to certificate\n    mapping(uint256 => string) public tokenToCert;\n\n    // ------------------------------ Events ------------------------------\n    /// @dev Emits when a new certificate created.\n    event NewCertificate(\n        uint256 idCertificate,\n        address[] owners,\n        address notary\n    );\n\n    /// @dev This emits when ownership of any NFTs changes by any mechanism\n    event Transfer(\n        address[] oldOwner,\n        address[] newOwner,\n        uint256 idCertificate\n    );\n\n    /// @dev Emits when the owner activate certificate (PENDDING => ACTIVATED)\n    event Activate(uint256 idCertificate, address owner, State state);\n\n    constructor(IRBAC _roleContract) public {\n        // Initialize roleContract\n        roleContract = _roleContract;\n        owner = msg.sender;\n    }\n\n    // ------------------------------ Modifiers ------------------------------\n\n    modifier onlyPending(uint256 _id) {\n        require(\n            tokenToState[_id] == State.PENDDING,\n            \"RealEstate: Require state is PENDDING\"\n        );\n        _;\n    }\n\n    modifier onlyActivated(uint256 _id) {\n        require(\n            tokenToState[_id] == State.ACTIVATED,\n            \"RealEstate: Require state is ACTIVATED\"\n        );\n        _;\n    }\n\n    modifier onlyInTransaction(uint256 _id) {\n        require(\n            tokenToState[_id] == State.IN_TRANSACTION,\n            \"RealEstate: Require state is iN_TRANSACTION\"\n        );\n        _;\n    }\n\n    modifier onlyOwnerOf(uint256 _id) {\n        require(\n            _checkExitInArray(tokenToOwners[_id], msg.sender),\n            \"RealEstate: You're not owner of certificate\"\n        );\n        _;\n    }\n\n    // ------------------------------ View functions ------------------------------\n\n    /**\n     * @notice Get the owner of a certificate\n     * @param _id The identifier of the certificate\n     * @return The list address of the owners of the certificate\n     */\n    function getOwnersOf(uint256 _id) public view returns (address[] memory) {\n        return tokenToOwners[_id];\n    }\n\n    /**\n     * @notice Get the owner approved for (sell || activate) depending on state of certificate\n     * @param _id id of certificate\n     * @return The list address of the owners approved\n     */\n    function getOwnerApproved(uint256 _id)\n        public\n        view\n        returns (address[] memory)\n    {\n        return tokenToApprovals[_id];\n    }\n\n    // ------------------------------ Core public functions ------------------------------\n\n    /**\n     * @notice Set role base acl contract address\n     * @dev only owner can change this contract address\n     */\n    function setRoleContractAddress(IRBAC _contractAddress) public {\n        require(owner == msg.sender, \"RealEstate: Require owner\");\n        roleContract = _contractAddress;\n    }\n\n    /**\n     * @notice create a new certificate with a struct\n     * @dev Require role notary and list owner does not contain msg.sender\n     */\n    function createCertificate(\n        string memory _certificate,\n        address[] memory _owners\n    ) public {\n        require(\n            roleContract.hasRole(msg.sender, 1),\n            \"RealEstate: Require notary\"\n        );\n        // require owner not to be notary(msg.sender)\n        require(\n            !_checkExitInArray(_owners, msg.sender),\n            \"RealEstate: You are not allowed to create your own property\"\n        );\n        certificateCount = certificateCount.add(1);\n        tokenToCert[certificateCount] = _certificate;\n        tokenToOwners[certificateCount] = _owners;\n        tokenToNotary[certificateCount] = msg.sender;\n        emit NewCertificate(certificateCount, _owners, msg.sender);\n    }\n\n    /**\n     * @notice Activate certificate (PENDDING => ACTIVATED)\n     * @dev Require msg.sender is owner of certification and msg.sender has not activated\n     * Change state of certificate if all owner has activated\n     */\n    function activate(uint256 _id) public onlyOwnerOf(_id) onlyPending(_id) {\n        require(\n            !_checkExitInArray(tokenToApprovals[_id], msg.sender),\n            \"RealEstate: Account already approved\"\n        );\n        // store msg.sender to list approved\n        tokenToApprovals[_id].push(msg.sender);\n        // if all owner approved => set state of certificate to 'ACTIVATED'\n        if (tokenToApprovals[_id].length == tokenToOwners[_id].length) {\n            tokenToState[_id] = State.ACTIVATED;\n            // set user approve to null\n            delete tokenToApprovals[_id];\n        }\n        emit Activate(_id, msg.sender, tokenToState[_id]);\n    }\n\n    function transferOwnership(\n        uint256 _idCertificate,\n        address[] calldata _newOwners\n    ) external onlyInTransaction(_idCertificate) {\n        // require deposit before => accept deposit => change state to IN_TRANSACTION\n        // first owner is representative of owners of certificate\n        require(\n            _newOwners.length > 0,\n            \"RealEstate(transfer): require one owner at least\"\n        );\n        address[] memory currentOwners = tokenToOwners[_idCertificate];\n        address representativeOwners = currentOwners[0];\n        // called in Transaction Contract => mean: msg.sender = TransactionContract\n        // using tx.origin will be the account that initiated the chain of contract calls\n        // or using msg.sender as the reliable input\n        require(\n            (tx.origin == representativeOwners),\n            \"RealEstate(transfer): Require representative of owner of cert\"\n        );\n        tokenToOwners[_idCertificate] = _newOwners;\n        emit Transfer(currentOwners, _newOwners, _idCertificate);\n    }\n\n    /**\n     * @notice Check state of certificate is 'ACTIVATED'\n     * @param _id identifier of certificate\n     * @return bool\n     */\n    function isActivated(uint256 _id) public view returns (bool) {\n        return tokenToState[_id] == State.ACTIVATED;\n    }\n\n    function getOwnersOfCert(uint256 _idCertificate)\n        external\n        view\n        returns (address[] memory)\n    {\n        return tokenToOwners[_idCertificate];\n    }\n\n    // get representative of owners of certificate (owners[0])\n    function getRepresentativeOfOwners(uint256 _idCertificate)\n        external\n        view\n        returns (address)\n    {\n        return tokenToOwners[_idCertificate][0];\n    }\n\n    function getStateOfCert(uint256 _idCertificate)\n        external\n        view\n        returns (State)\n    {\n        return tokenToState[_idCertificate];\n    }\n\n    function setStateOfCertInTransaction(uint256 _idCertificate) external {\n        tokenToState[_idCertificate] = State.IN_TRANSACTION;\n    }\n\n    function setStateOfCertOutTransaction(uint256 _idCertificate) external {\n        tokenToState[_idCertificate] = State.ACTIVATED;\n    }\n\n    // ------------------------------ Helper functions (internal functions) ------------------------------\n\n    /**\n     * @notice Check list address inclue single address\n     * @param _array list address\n     * @param _user\taddress want to check\n     * @return bool\n     */\n    function _checkExitInArray(address[] memory _array, address _user)\n        internal\n        pure\n        returns (bool)\n    {\n        uint256 _arrayLength = _array.length;\n        for (uint8 i = 0; i < _arrayLength; i++) {\n            if (_user == _array[i]) {\n                return true;\n            }\n        }\n        return false;\n    }\n}\n",
  "sourcePath": "E:/Desktop/KLTN MAIN/landtrade/contracts/RealEstate.sol",
  "compiler": {
    "name": "solc",
    "version": "0.5.3+commit.10d17f24.Emscripten.clang"
  },
  "schemaVersion": "3.0.20",
  "updatedAt": "2020-09-04T11:40:20.633Z",
  "networkType": "ethereum",
  "devdoc": {
    "details": "Real estate management and transaction",
    "methods": {
      "activate(uint256)": {
        "details": "Require msg.sender is owner of certification and msg.sender has not activated Change state of certificate if all owner has activated"
      },
      "createCertificate(string,address[])": {
        "details": "Require role notary and list owner does not contain msg.sender"
      },
      "getOwnerApproved(uint256)": {
        "params": {
          "_id": "id of certificate"
        },
        "return": "The list address of the owners approved"
      },
      "getOwnersOf(uint256)": {
        "params": {
          "_id": "The identifier of the certificate"
        },
        "return": "The list address of the owners of the certificate"
      },
      "isActivated(uint256)": {
        "params": {
          "_id": "identifier of certificate"
        },
        "return": "bool"
      },
      "setRoleContractAddress(address)": {
        "details": "only owner can change this contract address"
      }
    },
    "title": "RealEstate"
  },
  "userdoc": {
    "methods": {
      "activate(uint256)": {
        "notice": "Activate certificate (PENDDING => ACTIVATED)"
      },
      "createCertificate(string,address[])": {
        "notice": "create a new certificate with a struct"
      },
      "getOwnerApproved(uint256)": {
        "notice": "Get the owner approved for (sell || activate) depending on state of certificate"
      },
      "getOwnersOf(uint256)": {
        "notice": "Get the owner of a certificate"
      },
      "isActivated(uint256)": {
        "notice": "Check state of certificate is 'ACTIVATED'"
      },
      "setRoleContractAddress(address)": {
        "notice": "Set role base acl contract address"
      }
    }
  }
}