{
  "contractName": "RealEstate",
  "abi": [
    {
      "inputs": [
        {
          "internalType": "contract IRBAC",
          "name": "_roleContract",
          "type": "address"
        }
      ],
      "payable": false,
      "stateMutability": "nonpayable",
      "type": "constructor"
    },
    {
      "anonymous": false,
      "inputs": [
        {
          "indexed": false,
          "internalType": "uint256",
          "name": "idCertificate",
          "type": "uint256"
        },
        {
          "indexed": false,
          "internalType": "address",
          "name": "owner",
          "type": "address"
        },
        {
          "indexed": false,
          "internalType": "enum RealEstate.State",
          "name": "state",
          "type": "uint8"
        }
      ],
      "name": "Activate",
      "type": "event"
    },
    {
      "anonymous": false,
      "inputs": [
        {
          "indexed": false,
          "internalType": "uint256",
          "name": "idCertificate",
          "type": "uint256"
        },
        {
          "indexed": false,
          "internalType": "address",
          "name": "owner",
          "type": "address"
        },
        {
          "indexed": false,
          "internalType": "enum RealEstate.State",
          "name": "state",
          "type": "uint8"
        }
      ],
      "name": "ActivateSale",
      "type": "event"
    },
    {
      "anonymous": false,
      "inputs": [
        {
          "components": [
            {
              "internalType": "string",
              "name": "location",
              "type": "string"
            },
            {
              "internalType": "string",
              "name": "purposeOfUse",
              "type": "string"
            },
            {
              "internalType": "string",
              "name": "timeOfUse",
              "type": "string"
            },
            {
              "internalType": "string",
              "name": "originOfUse",
              "type": "string"
            },
            {
              "internalType": "uint8",
              "name": "landLotNo",
              "type": "uint8"
            },
            {
              "internalType": "uint8",
              "name": "mapSheetNo",
              "type": "uint8"
            },
            {
              "internalType": "uint8",
              "name": "area",
              "type": "uint8"
            }
          ],
          "indexed": false,
          "internalType": "struct RealEstate.LandLot",
          "name": "landLot",
          "type": "tuple"
        },
        {
          "components": [
            {
              "internalType": "uint8",
              "name": "level",
              "type": "uint8"
            },
            {
              "internalType": "uint8",
              "name": "constructionArea",
              "type": "uint8"
            },
            {
              "internalType": "string",
              "name": "location",
              "type": "string"
            },
            {
              "internalType": "string",
              "name": "houseType",
              "type": "string"
            },
            {
              "internalType": "string",
              "name": "apartmentName",
              "type": "string"
            },
            {
              "internalType": "string",
              "name": "floorArea",
              "type": "string"
            },
            {
              "internalType": "string",
              "name": "formOfOwn",
              "type": "string"
            },
            {
              "internalType": "string",
              "name": "timeOfUse",
              "type": "string"
            }
          ],
          "indexed": false,
          "internalType": "struct RealEstate.House",
          "name": "house",
          "type": "tuple"
        },
        {
          "indexed": false,
          "internalType": "string",
          "name": "ortherConstruction",
          "type": "string"
        },
        {
          "indexed": false,
          "internalType": "string",
          "name": "prodForestIsArtificial",
          "type": "string"
        },
        {
          "indexed": false,
          "internalType": "string",
          "name": "perennialTree",
          "type": "string"
        },
        {
          "indexed": false,
          "internalType": "string",
          "name": "notice",
          "type": "string"
        },
        {
          "indexed": true,
          "internalType": "address",
          "name": "notary",
          "type": "address"
        }
      ],
      "name": "NewCertificate",
      "type": "event"
    },
    {
      "anonymous": false,
      "inputs": [
        {
          "indexed": false,
          "internalType": "address[]",
          "name": "oldOwner",
          "type": "address[]"
        },
        {
          "indexed": false,
          "internalType": "address[]",
          "name": "newOwner",
          "type": "address[]"
        },
        {
          "indexed": false,
          "internalType": "uint256",
          "name": "idCertificate",
          "type": "uint256"
        },
        {
          "indexed": true,
          "internalType": "address",
          "name": "notary",
          "type": "address"
        }
      ],
      "name": "Transfer",
      "type": "event"
    },
    {
      "constant": true,
      "inputs": [],
      "name": "certificateCount",
      "outputs": [
        {
          "internalType": "uint256",
          "name": "",
          "type": "uint256"
        }
      ],
      "payable": false,
      "stateMutability": "view",
      "type": "function"
    },
    {
      "constant": true,
      "inputs": [
        {
          "internalType": "uint256",
          "name": "",
          "type": "uint256"
        }
      ],
      "name": "tokenToNotary",
      "outputs": [
        {
          "internalType": "address",
          "name": "",
          "type": "address"
        }
      ],
      "payable": false,
      "stateMutability": "view",
      "type": "function"
    },
    {
      "constant": true,
      "inputs": [
        {
          "internalType": "uint256",
          "name": "",
          "type": "uint256"
        }
      ],
      "name": "tokenToState",
      "outputs": [
        {
          "internalType": "enum RealEstate.State",
          "name": "",
          "type": "uint8"
        }
      ],
      "payable": false,
      "stateMutability": "view",
      "type": "function"
    },
    {
      "constant": true,
      "inputs": [
        {
          "internalType": "uint256",
          "name": "_id",
          "type": "uint256"
        }
      ],
      "name": "getOwnersOf",
      "outputs": [
        {
          "internalType": "address[]",
          "name": "",
          "type": "address[]"
        }
      ],
      "payable": false,
      "stateMutability": "view",
      "type": "function"
    },
    {
      "constant": true,
      "inputs": [
        {
          "internalType": "uint256",
          "name": "_id",
          "type": "uint256"
        }
      ],
      "name": "getOwnerApproved",
      "outputs": [
        {
          "internalType": "address[]",
          "name": "",
          "type": "address[]"
        }
      ],
      "payable": false,
      "stateMutability": "view",
      "type": "function"
    },
    {
      "constant": false,
      "inputs": [
        {
          "components": [
            {
              "internalType": "string",
              "name": "location",
              "type": "string"
            },
            {
              "internalType": "string",
              "name": "purposeOfUse",
              "type": "string"
            },
            {
              "internalType": "string",
              "name": "timeOfUse",
              "type": "string"
            },
            {
              "internalType": "string",
              "name": "originOfUse",
              "type": "string"
            },
            {
              "internalType": "uint8",
              "name": "landLotNo",
              "type": "uint8"
            },
            {
              "internalType": "uint8",
              "name": "mapSheetNo",
              "type": "uint8"
            },
            {
              "internalType": "uint8",
              "name": "area",
              "type": "uint8"
            }
          ],
          "internalType": "struct RealEstate.LandLot",
          "name": "_landLot",
          "type": "tuple"
        },
        {
          "components": [
            {
              "internalType": "uint8",
              "name": "level",
              "type": "uint8"
            },
            {
              "internalType": "uint8",
              "name": "constructionArea",
              "type": "uint8"
            },
            {
              "internalType": "string",
              "name": "location",
              "type": "string"
            },
            {
              "internalType": "string",
              "name": "houseType",
              "type": "string"
            },
            {
              "internalType": "string",
              "name": "apartmentName",
              "type": "string"
            },
            {
              "internalType": "string",
              "name": "floorArea",
              "type": "string"
            },
            {
              "internalType": "string",
              "name": "formOfOwn",
              "type": "string"
            },
            {
              "internalType": "string",
              "name": "timeOfUse",
              "type": "string"
            }
          ],
          "internalType": "struct RealEstate.House",
          "name": "_house",
          "type": "tuple"
        },
        {
          "internalType": "string",
          "name": "_ortherConstruction",
          "type": "string"
        },
        {
          "internalType": "string",
          "name": "_prodForestIsArtificial",
          "type": "string"
        },
        {
          "internalType": "string",
          "name": "_perennialTree",
          "type": "string"
        },
        {
          "internalType": "string",
          "name": "_notice",
          "type": "string"
        },
        {
          "internalType": "address[]",
          "name": "_owners",
          "type": "address[]"
        }
      ],
      "name": "createCertificate",
      "outputs": [],
      "payable": false,
      "stateMutability": "nonpayable",
      "type": "function"
    },
    {
      "constant": false,
      "inputs": [
        {
          "internalType": "uint256",
          "name": "_id",
          "type": "uint256"
        }
      ],
      "name": "activate",
      "outputs": [],
      "payable": false,
      "stateMutability": "nonpayable",
      "type": "function"
    },
    {
      "constant": false,
      "inputs": [
        {
          "internalType": "uint256",
          "name": "_id",
          "type": "uint256"
        }
      ],
      "name": "activateSale",
      "outputs": [],
      "payable": false,
      "stateMutability": "nonpayable",
      "type": "function"
    },
    {
      "constant": false,
      "inputs": [
        {
          "internalType": "address[]",
          "name": "_newOwners",
          "type": "address[]"
        },
        {
          "internalType": "uint256",
          "name": "_id",
          "type": "uint256"
        }
      ],
      "name": "transfer",
      "outputs": [],
      "payable": false,
      "stateMutability": "nonpayable",
      "type": "function"
    },
    {
      "constant": true,
      "inputs": [
        {
          "internalType": "uint256",
          "name": "_id",
          "type": "uint256"
        }
      ],
      "name": "isActivated",
      "outputs": [
        {
          "internalType": "bool",
          "name": "",
          "type": "bool"
        }
      ],
      "payable": false,
      "stateMutability": "view",
      "type": "function"
    },
    {
      "constant": true,
      "inputs": [
        {
          "internalType": "uint256",
          "name": "_id",
          "type": "uint256"
        }
      ],
      "name": "isSelling",
      "outputs": [
        {
          "internalType": "bool",
          "name": "",
          "type": "bool"
        }
      ],
      "payable": false,
      "stateMutability": "view",
      "type": "function"
    }
  ],
  "bytecode": "0x60806040523480156200001157600080fd5b506040516200236638038062002366833981810160405262000037919081019062000095565b806000806101000a81548173ffffffffffffffffffffffffffffffffffffffff021916908373ffffffffffffffffffffffffffffffffffffffff1602179055505062000123565b6000815190506200008f8162000109565b92915050565b600060208284031215620000a857600080fd5b6000620000b8848285016200007e565b91505092915050565b6000620000ce82620000e9565b9050919050565b6000620000e282620000c1565b9050919050565b600073ffffffffffffffffffffffffffffffffffffffff82169050919050565b6200011481620000d5565b81146200012057600080fd5b50565b61223380620001336000396000f3fe608060405234801561001057600080fd5b50600436106100a95760003560e01c80637ab12bb6116100715780637ab12bb614610178578063b260c42a14610194578063b633a3c4146101b0578063bfb5d8fa146101cc578063cef6d1d5146101fc578063fa63fac71461022c576100a9565b80631939c1ff146100ae57806320e124f7146100ca57806331809dcf146100fa57806352d7b89c1461012a57806374be166e14610148575b600080fd5b6100c860048036036100c39190810190611542565b61025c565b005b6100e460048036036100df9190810190611705565b6104bc565b6040516100f19190611d61565b60405180910390f35b610114600480360361010f9190810190611705565b6104fe565b6040516101219190611d61565b60405180910390f35b610132610541565b60405161013f9190611f02565b60405180910390f35b610162600480360361015d9190810190611705565b610547565b60405161016f9190611cb6565b60405180910390f35b610192600480360361018d9190810190611705565b61057a565b005b6101ae60048036036101a99190810190611705565b6108c6565b005b6101ca60048036036101c591908101906115bf565b610be7565b005b6101e660048036036101e19190810190611705565b610e45565b6040516101f39190611cfa565b60405180910390f35b61021660048036036102119190810190611705565b610ee6565b6040516102239190611cfa565b60405180910390f35b61024660048036036102419190810190611705565b610f87565b6040516102539190611d7c565b60405180910390f35b80610266816104bc565b6102a5576040517f08c379a000000000000000000000000000000000000000000000000000000000815260040161029c90611dd7565b60405180910390fd5b6000809054906101000a900473ffffffffffffffffffffffffffffffffffffffff1673ffffffffffffffffffffffffffffffffffffffff166395a8c58d3360016040518363ffffffff1660e01b8152600401610302929190611cd1565b60206040518083038186803b15801561031a57600080fd5b505afa15801561032e573d6000803e3d6000fd5b505050506040513d601f19601f820116820180604052506103529190810190611596565b610391576040517f08c379a000000000000000000000000000000000000000000000000000000000815260040161038890611e57565b60405180910390fd5b61039b8333610fa7565b156103db576040517f08c379a00000000000000000000000000000000000000000000000000000000081526004016103d290611d97565b60405180910390fd5b60606103e683610e45565b90508360026000858152602001908152602001600020908051906020019061040f92919061104a565b5060016004600085815260200190815260200160002060006101000a81548160ff0219169083600281111561044057fe5b021790555060036000848152602001908152602001600020600061046491906110d4565b3373ffffffffffffffffffffffffffffffffffffffff167f6d3779dd89c026ff2bfc16c63995bbe2778c24b8765bb1260983974368d2e5c88286866040516104ae93929190611d1c565b60405180910390a250505050565b60006002808111156104ca57fe5b6004600084815260200190815260200160002060009054906101000a900460ff1660028111156104f657fe5b149050919050565b60006001600281111561050d57fe5b6004600084815260200190815260200160002060009054906101000a900460ff16600281111561053957fe5b149050919050565b60015481565b60056020528060005260406000206000915054906101000a900473ffffffffffffffffffffffffffffffffffffffff1681565b80610584816104fe565b6105c3576040517f08c379a00000000000000000000000000000000000000000000000000000000081526004016105ba90611db7565b60405180910390fd5b816106656002600083815260200190815260200160002080548060200260200160405190810160405280929190818152602001828054801561065a57602002820191906000526020600020905b8160009054906101000a900473ffffffffffffffffffffffffffffffffffffffff1673ffffffffffffffffffffffffffffffffffffffff1681526020019060010190808311610610575b505050505033610fa7565b6106a4576040517f08c379a000000000000000000000000000000000000000000000000000000000815260040161069b90611e17565b60405180910390fd5b6107456003600085815260200190815260200160002080548060200260200160405190810160405280929190818152602001828054801561073a57602002820191906000526020600020905b8160009054906101000a900473ffffffffffffffffffffffffffffffffffffffff1673ffffffffffffffffffffffffffffffffffffffff16815260200190600101908083116106f0575b505050505033610fa7565b15610785576040517f08c379a000000000000000000000000000000000000000000000000000000000815260040161077c90611e37565b60405180910390fd5b600360008481526020019081526020016000203390806001815401808255809150509060018203906000526020600020016000909192909190916101000a81548173ffffffffffffffffffffffffffffffffffffffff021916908373ffffffffffffffffffffffffffffffffffffffff160217905550506002600084815260200190815260200160002080549050600360008581526020019081526020016000208054905014156108665760026004600085815260200190815260200160002060006101000a81548160ff0219169083600281111561086057fe5b02179055505b7f1673aa0c1ba96f1b1dd67403df96765c006867468c17287b1025a17f493661de83336004600087815260200190815260200160002060009054906101000a900460ff166040516108b993929190611f1d565b60405180910390a1505050565b806109686002600083815260200190815260200160002080548060200260200160405190810160405280929190818152602001828054801561095d57602002820191906000526020600020905b8160009054906101000a900473ffffffffffffffffffffffffffffffffffffffff1673ffffffffffffffffffffffffffffffffffffffff1681526020019060010190808311610913575b505050505033610fa7565b6109a7576040517f08c379a000000000000000000000000000000000000000000000000000000000815260040161099e90611e17565b60405180910390fd5b610a4860036000848152602001908152602001600020805480602002602001604051908101604052809291908181526020018280548015610a3d57602002820191906000526020600020905b8160009054906101000a900473ffffffffffffffffffffffffffffffffffffffff1673ffffffffffffffffffffffffffffffffffffffff16815260200190600101908083116109f3575b505050505033610fa7565b15610a88576040517f08c379a0000000000000000000000000000000000000000000000000000000008152600401610a7f90611e37565b60405180910390fd5b600360008381526020019081526020016000203390806001815401808255809150509060018203906000526020600020016000909192909190916101000a81548173ffffffffffffffffffffffffffffffffffffffff021916908373ffffffffffffffffffffffffffffffffffffffff16021790555050600260008381526020019081526020016000208054905060036000848152602001908152602001600020805490501415610b885760016004600084815260200190815260200160002060006101000a81548160ff02191690836002811115610b6357fe5b0217905550600360008381526020019081526020016000206000610b8791906110d4565b5b7fe9d73e2004f3048a08f0b9e825d2618190a50fe92f987d3b76d90fc3d998369d82336004600086815260200190815260200160002060009054906101000a900460ff16604051610bdb93929190611f1d565b60405180910390a15050565b6000809054906101000a900473ffffffffffffffffffffffffffffffffffffffff1673ffffffffffffffffffffffffffffffffffffffff166395a8c58d3360016040518363ffffffff1660e01b8152600401610c44929190611cd1565b60206040518083038186803b158015610c5c57600080fd5b505afa158015610c70573d6000803e3d6000fd5b505050506040513d601f19601f82011682018060405250610c949190810190611596565b610cd3576040517f08c379a0000000000000000000000000000000000000000000000000000000008152600401610cca90611e57565b60405180910390fd5b610cdd8133610fa7565b15610d1d576040517f08c379a0000000000000000000000000000000000000000000000000000000008152600401610d1490611df7565b60405180910390fd5b610d326001805461102e90919063ffffffff16565b6001819055506040518060c001604052808881526020018781526020018681526020018581526020018481526020018381525050806002600060015481526020019081526020016000209080519060200190610d8f92919061104a565b503360056000600154815260200190815260200160002060006101000a81548173ffffffffffffffffffffffffffffffffffffffff021916908373ffffffffffffffffffffffffffffffffffffffff1602179055503373ffffffffffffffffffffffffffffffffffffffff167fdbf7fb85dfb499a5e83b90675d7f85a51d81238947049e4cdac782cb12973732888888888888604051610e3496959493929190611e77565b60405180910390a250505050505050565b606060026000838152602001908152602001600020805480602002602001604051908101604052809291908181526020018280548015610eda57602002820191906000526020600020905b8160009054906101000a900473ffffffffffffffffffffffffffffffffffffffff1673ffffffffffffffffffffffffffffffffffffffff1681526020019060010190808311610e90575b50505050509050919050565b606060036000838152602001908152602001600020805480602002602001604051908101604052809291908181526020018280548015610f7b57602002820191906000526020600020905b8160009054906101000a900473ffffffffffffffffffffffffffffffffffffffff1673ffffffffffffffffffffffffffffffffffffffff1681526020019060010190808311610f31575b50505050509050919050565b60046020528060005260406000206000915054906101000a900460ff1681565b6000808351905060008090505b818160ff16101561102157848160ff1681518110610fce57fe5b602002602001015173ffffffffffffffffffffffffffffffffffffffff168473ffffffffffffffffffffffffffffffffffffffff16141561101457600192505050611028565b8080600101915050610fb4565b5060009150505b92915050565b60008082840190508381101561104057fe5b8091505092915050565b8280548282559060005260206000209081019282156110c3579160200282015b828111156110c25782518260006101000a81548173ffffffffffffffffffffffffffffffffffffffff021916908373ffffffffffffffffffffffffffffffffffffffff1602179055509160200191906001019061106a565b5b5090506110d091906110f5565b5090565b50805460008255906000526020600020908101906110f29190611138565b50565b61113591905b8082111561113157600081816101000a81549073ffffffffffffffffffffffffffffffffffffffff0219169055506001016110fb565b5090565b90565b61115a91905b8082111561115657600081600090555060010161113e565b5090565b90565b60008135905061116c81612194565b92915050565b600082601f83011261118357600080fd5b813561119661119182611f81565b611f54565b915081818352602084019350602081019050838560208402820111156111bb57600080fd5b60005b838110156111eb57816111d1888261115d565b8452602084019350602083019250506001810190506111be565b5050505092915050565b600081519050611204816121ab565b92915050565b600082601f83011261121b57600080fd5b813561122e61122982611fa9565b611f54565b9150808252602083016020830185838301111561124a57600080fd5b611255838284612134565b50505092915050565b600082601f83011261126f57600080fd5b813561128261127d82611fd5565b611f54565b9150808252602083016020830185838301111561129e57600080fd5b6112a9838284612134565b50505092915050565b600061010082840312156112c557600080fd5b6112d0610100611f54565b905060006112e08482850161152d565b60008301525060206112f48482850161152d565b602083015250604082013567ffffffffffffffff81111561131457600080fd5b6113208482850161120a565b604083015250606082013567ffffffffffffffff81111561134057600080fd5b61134c8482850161120a565b606083015250608082013567ffffffffffffffff81111561136c57600080fd5b6113788482850161120a565b60808301525060a082013567ffffffffffffffff81111561139857600080fd5b6113a48482850161120a565b60a08301525060c082013567ffffffffffffffff8111156113c457600080fd5b6113d08482850161120a565b60c08301525060e082013567ffffffffffffffff8111156113f057600080fd5b6113fc8482850161120a565b60e08301525092915050565b600060e0828403121561141a57600080fd5b61142460e0611f54565b9050600082013567ffffffffffffffff81111561144057600080fd5b61144c8482850161120a565b600083015250602082013567ffffffffffffffff81111561146c57600080fd5b6114788482850161120a565b602083015250604082013567ffffffffffffffff81111561149857600080fd5b6114a48482850161120a565b604083015250606082013567ffffffffffffffff8111156114c457600080fd5b6114d08482850161120a565b60608301525060806114e48482850161152d565b60808301525060a06114f88482850161152d565b60a08301525060c061150c8482850161152d565b60c08301525092915050565b600081359050611527816121c2565b92915050565b60008135905061153c816121d9565b92915050565b6000806040838503121561155557600080fd5b600083013567ffffffffffffffff81111561156f57600080fd5b61157b85828601611172565b925050602061158c85828601611518565b9150509250929050565b6000602082840312156115a857600080fd5b60006115b6848285016111f5565b91505092915050565b600080600080600080600060e0888a0312156115da57600080fd5b600088013567ffffffffffffffff8111156115f457600080fd5b6116008a828b01611408565b975050602088013567ffffffffffffffff81111561161d57600080fd5b6116298a828b016112b2565b965050604088013567ffffffffffffffff81111561164657600080fd5b6116528a828b0161125e565b955050606088013567ffffffffffffffff81111561166f57600080fd5b61167b8a828b0161125e565b945050608088013567ffffffffffffffff81111561169857600080fd5b6116a48a828b0161125e565b93505060a088013567ffffffffffffffff8111156116c157600080fd5b6116cd8a828b0161125e565b92505060c088013567ffffffffffffffff8111156116ea57600080fd5b6116f68a828b01611172565b91505092959891949750929550565b60006020828403121561171757600080fd5b600061172584828501611518565b91505092915050565b600061173a8383611755565b60208301905092915050565b61174f816120da565b82525050565b61175e81612072565b82525050565b61176d81612072565b82525050565b600061177e82612011565b611788818561203f565b935061179383612001565b8060005b838110156117c45781516117ab888261172e565b97506117b683612032565b925050600181019050611797565b5085935050505092915050565b6117da81612084565b82525050565b6117e9816120ec565b82525050565b6117f8816120fe565b82525050565b600061180982612027565b6118138185612061565b9350611823818560208601612143565b61182c81612176565b840191505092915050565b60006118428261201c565b61184c8185612050565b935061185c818560208601612143565b61186581612176565b840191505092915050565b600061187d602b83612061565b91507f5265616c4573746174653a2043616e2774207472616e7366657220746f20637560008301527f7272656e74206f776e65720000000000000000000000000000000000000000006020830152604082019050919050565b60006118e3602183612061565b91507f5265616c4573746174653a20506c65617365206163746976617465206669727360008301527f74000000000000000000000000000000000000000000000000000000000000006020830152604082019050919050565b6000611949603283612061565b91507f5265616c4573746174653a2054686520636572746966696361746520646f657360008301527f6e277420616c6c6f7720666f722073616c6500000000000000000000000000006020830152604082019050919050565b60006119af603b83612061565b91507f5265616c4573746174653a20596f7520617265206e6f7420616c6c6f7765642060008301527f746f2063726561746520796f7572206f776e2070726f706572747900000000006020830152604082019050919050565b6000611a15602b83612061565b91507f5265616c4573746174653a20596f75277265206e6f74206f776e6572206f662060008301527f63657274696669636174650000000000000000000000000000000000000000006020830152604082019050919050565b6000611a7b602483612061565b91507f5265616c4573746174653a204163636f756e7420616c7265616479206170707260008301527f6f766564000000000000000000000000000000000000000000000000000000006020830152604082019050919050565b6000611ae1601a83612061565b91507f5265616c4573746174653a2052657175697265206e6f746172790000000000006000830152602082019050919050565b600061010083016000830151611b2d6000860182611ca7565b506020830151611b406020860182611ca7565b5060408301518482036040860152611b588282611837565b91505060608301518482036060860152611b728282611837565b91505060808301518482036080860152611b8c8282611837565b91505060a083015184820360a0860152611ba68282611837565b91505060c083015184820360c0860152611bc08282611837565b91505060e083015184820360e0860152611bda8282611837565b9150508091505092915050565b600060e0830160008301518482036000860152611c048282611837565b91505060208301518482036020860152611c1e8282611837565b91505060408301518482036040860152611c388282611837565b91505060608301518482036060860152611c528282611837565b9150506080830151611c676080860182611ca7565b5060a0830151611c7a60a0860182611ca7565b5060c0830151611c8d60c0860182611ca7565b508091505092915050565b611ca1816120c3565b82525050565b611cb0816120cd565b82525050565b6000602082019050611ccb6000830184611764565b92915050565b6000604082019050611ce66000830185611746565b611cf360208301846117ef565b9392505050565b60006020820190508181036000830152611d148184611773565b905092915050565b60006060820190508181036000830152611d368186611773565b90508181036020830152611d4a8185611773565b9050611d596040830184611c98565b949350505050565b6000602082019050611d7660008301846117d1565b92915050565b6000602082019050611d9160008301846117e0565b92915050565b60006020820190508181036000830152611db081611870565b9050919050565b60006020820190508181036000830152611dd0816118d6565b9050919050565b60006020820190508181036000830152611df08161193c565b9050919050565b60006020820190508181036000830152611e10816119a2565b9050919050565b60006020820190508181036000830152611e3081611a08565b9050919050565b60006020820190508181036000830152611e5081611a6e565b9050919050565b60006020820190508181036000830152611e7081611ad4565b9050919050565b600060c0820190508181036000830152611e918189611be7565b90508181036020830152611ea58188611b14565b90508181036040830152611eb981876117fe565b90508181036060830152611ecd81866117fe565b90508181036080830152611ee181856117fe565b905081810360a0830152611ef581846117fe565b9050979650505050505050565b6000602082019050611f176000830184611c98565b92915050565b6000606082019050611f326000830186611c98565b611f3f6020830185611746565b611f4c60408301846117e0565b949350505050565b6000604051905081810181811067ffffffffffffffff82111715611f7757600080fd5b8060405250919050565b600067ffffffffffffffff821115611f9857600080fd5b602082029050602081019050919050565b600067ffffffffffffffff821115611fc057600080fd5b601f19601f8301169050602081019050919050565b600067ffffffffffffffff821115611fec57600080fd5b601f19601f8301169050602081019050919050565b6000819050602082019050919050565b600081519050919050565b600081519050919050565b600081519050919050565b6000602082019050919050565b600082825260208201905092915050565b600082825260208201905092915050565b600082825260208201905092915050565b600061207d826120a3565b9050919050565b60008115159050919050565b600081905061209e82612187565b919050565b600073ffffffffffffffffffffffffffffffffffffffff82169050919050565b6000819050919050565b600060ff82169050919050565b60006120e582612110565b9050919050565b60006120f782612090565b9050919050565b6000612109826120cd565b9050919050565b600061211b82612122565b9050919050565b600061212d826120a3565b9050919050565b82818337600083830152505050565b60005b83811015612161578082015181840152602081019050612146565b83811115612170576000848401525b50505050565b6000601f19601f8301169050919050565b6003811061219157fe5b50565b61219d81612072565b81146121a857600080fd5b50565b6121b481612084565b81146121bf57600080fd5b50565b6121cb816120c3565b81146121d657600080fd5b50565b6121e2816120cd565b81146121ed57600080fd5b5056fea365627a7a72315820cf759442dde9ca192de7fe99bafbe373f6ad1f1d650589746dee07d3b678a25a6c6578706572696d656e74616cf564736f6c63430005100040",
  "source": "pragma solidity >=0.4.21 <0.7.0;\r\npragma experimental ABIEncoderV2;\r\n\r\nimport \"./SafeMath.sol\";\r\n\r\n\r\ninterface IRBAC {\r\n\t/**\r\n\t * @param _account account to check roleContract\r\n\t * @param _role uint(enum) => uint8 0: SUPER_ADMIN, 1: NOTARY\r\n\t * @return bool\r\n\t */\r\n\tfunction hasRole(address _account, uint8 _role) external view returns (bool);\r\n}\r\n\r\n\r\n/**\r\n * @title RealEstate\r\n * @dev Real estate management and transaction\r\n */\r\n\r\ncontract RealEstate {\r\n\tusing SafeMath for uint256;\r\n\t// ------------------------------ Variables ------------------------------\r\n\tIRBAC roleContract;\t\t// reference to contract RoleBasedAcl\r\n\t// number of certificate (token id)\r\n\tuint256 public certificateCount;\r\n\t// State of certificate\r\n\tenum State { PENDDING, ACTIVATED, SELLING } //sate of token PENDDING: 0, ACTIVATED: 1, SELLING: 2\r\n\r\n\tstruct LandLot {\r\n\t\tstring location;\r\n\t\tstring purposeOfUse;\r\n\t\tstring timeOfUse;\r\n\t\tstring originOfUse;\r\n\t\tuint8 landLotNo;\r\n\t\tuint8 mapSheetNo;\r\n\t\tuint8 area;\r\n\t}\r\n\r\n\tstruct House {\r\n\t\tuint8 level;\r\n\t\tuint8 constructionArea;\r\n\t\tstring location;\r\n\t\tstring houseType;\r\n\t\tstring apartmentName;\r\n\t\tstring floorArea;\r\n\t\tstring formOfOwn;\r\n\t\tstring timeOfUse;\r\n\t}\r\n\r\n\tstruct Certificate {\r\n\t\tLandLot landLot;\r\n\t\tHouse house;\r\n\t\tstring otherConstruction;\r\n\t\tstring prodForestIsArtificial;\r\n\t\tstring perennialTree;\r\n\t\tstring notice;\r\n\t}\r\n\r\n\t// mapping token to owners\r\n\tmapping(uint256 => address[]) tokenToOwners;\r\n\t// mapping token to owner approved (activate || sell)\r\n\tmapping(uint256 => address[]) tokenToApprovals;\r\n\t// mapping token to state of token\r\n\tmapping(uint256 => State) public tokenToState; // Default: 0 => 'PENDDING'\r\n\t// mapping token to notary\r\n\tmapping(uint256 => address) public tokenToNotary;\r\n\r\n\t// ------------------------------ Events ------------------------------\r\n\t/// @dev Emits when a new certificate created.\r\n\tevent NewCertificate(\r\n\t\tLandLot landLot,\r\n\t\tHouse house,\r\n\t\tstring ortherConstruction,\r\n\t\tstring prodForestIsArtificial,\r\n\t\tstring perennialTree,\r\n\t\tstring notice,\r\n\t\taddress indexed notary\r\n\t);\r\n\r\n\t/// @dev This emits when ownership of any NFTs changes by any mechanism\r\n\tevent Transfer(\r\n\t\taddress[] oldOwner,\r\n\t\taddress[] newOwner,\r\n\t\tuint256 idCertificate,\r\n\t\taddress indexed notary\r\n\t);\r\n\r\n\t/// @dev Emits when the owner activate certificate (PENDDING => ACTIVATED)\r\n\tevent Activate(uint256 idCertificate, address owner, State state);\r\n\r\n\t/// @dev Emits when the owner activate sale for certificate (ACTIVATED => SELLING)\r\n\tevent ActivateSale(uint256 idCertificate, address owner, State state);\r\n\r\n\tconstructor(IRBAC _roleContract) public{\r\n\t\t// Initialize roleContract\r\n\t\troleContract = _roleContract;\r\n\t}\r\n\r\n\t// ------------------------------ Modifiers ------------------------------\r\n\r\n\tmodifier onlyActivated(uint256 _id) {\r\n\t\trequire(isActivated(_id), \"RealEstate: Please activate first\");\r\n\t\t_;\r\n\t}\r\n\r\n\tmodifier onlySelling(uint256 _id) {\r\n\t\trequire(isSelling(_id), \"RealEstate: The certificate doesn't allow for sale\");\r\n\t\t_;\r\n\t}\r\n\r\n\tmodifier onlyOwnerOf(uint256 _id) {\r\n\t\trequire(\r\n\t\t\t_checkExitInArray(tokenToOwners[_id], msg.sender),\r\n\t\t\t\"RealEstate: You're not owner of certificate\"\r\n\t\t);\r\n\t\t_;\r\n\t}\r\n\r\n\t// ------------------------------ View functions ------------------------------\r\n\r\n\t/**\r\n\t * @notice Get the owner of a certificate\r\n\t * @param _id The identifier of the certificate\r\n\t * @return The list address of the owners of the certificate\r\n\t */\r\n\tfunction getOwnersOf(uint256 _id) public view returns (address[] memory) {\r\n\t\treturn tokenToOwners[_id];\r\n\t}\r\n\r\n\t/**\r\n\t * @notice Get the owner approved for (sell || activate) depending on state of certificate\r\n\t * @param _id id of certificate\r\n\t * @return The list address of the owners approved\r\n\t */\r\n\tfunction getOwnerApproved(uint256 _id) public view returns (address[] memory) {\r\n\t\treturn tokenToApprovals[_id];\r\n\t}\r\n\r\n\t// ------------------------------ Core public functions ------------------------------\r\n\r\n\t/**\r\n\t * @notice create a new certificate with a struct\r\n\t * @dev Require role notary and list owner does not contain msg.sender\r\n\t */\r\n\tfunction createCertificate(\r\n\t\tLandLot memory _landLot,\r\n\t\tHouse memory _house,\r\n\t\tstring memory _ortherConstruction,\r\n\t\tstring memory _prodForestIsArtificial,\r\n\t\tstring memory _perennialTree,\r\n\t\tstring memory _notice,\r\n\t\taddress[] memory _owners\r\n\t) public {\r\n\t\trequire(roleContract.hasRole(msg.sender,1), \"RealEstate: Require notary\");\r\n\t\t// require owner not to be notary(msg.sender)\r\n\t\trequire(\r\n\t\t\t!_checkExitInArray(_owners, msg.sender),\r\n\t\t\t\"RealEstate: You are not allowed to create your own property\"\r\n\t\t);\r\n\t\tcertificateCount = certificateCount.add(1);\r\n\t\tCertificate(\r\n\t\t\t_landLot,\r\n\t\t\t_house,\r\n\t\t\t_ortherConstruction,\r\n\t\t\t_prodForestIsArtificial,\r\n\t\t\t_perennialTree,\r\n\t\t\t_notice\r\n\t\t);\r\n\t\ttokenToOwners[certificateCount] = _owners;\r\n\t\ttokenToNotary[certificateCount] = msg.sender;\r\n\t\temit NewCertificate(\r\n\t\t\t_landLot,\r\n\t\t\t_house,\r\n\t\t\t_ortherConstruction,\r\n\t\t\t_prodForestIsArtificial,\r\n\t\t\t_perennialTree,\r\n\t\t\t_notice,\r\n\t\t\tmsg.sender\r\n\t\t);\r\n\t}\r\n\r\n\t/**\r\n\t * @notice Activate certificate (PENDDING => ACTIVATED)\r\n\t * @dev Require msg.sender is owner of certification and msg.sender has not activated\r\n\t * Change state of certificate if all owner has activated\r\n\t */\r\n\tfunction activate(uint256 _id) public onlyOwnerOf(_id) {\r\n\t\trequire(\r\n\t\t\t!_checkExitInArray(tokenToApprovals[_id], msg.sender),\r\n\t\t\t\"RealEstate: Account already approved\"\r\n\t\t);\r\n\t\t// store msg.sender to list approved\r\n\t\ttokenToApprovals[_id].push(msg.sender);\r\n\t\t// if all owner approved => set state of certificate to 'ACTIVATED'\r\n\t\tif (tokenToApprovals[_id].length == tokenToOwners[_id].length) {\r\n\t\t\ttokenToState[_id] = State.ACTIVATED;\r\n\t\t\t// set user approve to null\r\n\t\t\tdelete tokenToApprovals[_id];\r\n\t\t}\r\n\t\temit Activate(_id, msg.sender, tokenToState[_id]);\r\n\t}\r\n\r\n\t/**\r\n\t * @notice Activate for sale\r\n\t * @dev require current token state is 'ACTIVATED'\r\n\t * @dev Require msg.sender is owner of certification and msg.sender has not activated\r\n\t * Change state of certificate if all owner has activated\r\n\t */\r\n\tfunction activateSale(uint256 _id) public onlyActivated(_id) onlyOwnerOf(_id) {\r\n\t\t// require msg.sender dot not ACTIVATED\r\n\t\trequire(\r\n\t\t\t!_checkExitInArray(tokenToApprovals[_id], msg.sender),\r\n\t\t\t\"RealEstate: Account already approved\"\r\n\t\t);\r\n\t\t// store msg.sender to list approved\r\n\t\ttokenToApprovals[_id].push(msg.sender);\r\n\t\t// if all owner approved => set state of certificate to 'SELLING'\r\n\t\tif (tokenToApprovals[_id].length == tokenToOwners[_id].length) {\r\n\t\t\ttokenToState[_id] = State.SELLING;\r\n\t\t}\r\n\t\temit ActivateSale(_id, msg.sender, tokenToState[_id]);\r\n\t}\r\n\r\n\t/**\r\n\t * @notice Transfer ownership of certificate\r\n\t * @dev Only notary allowed && msg.sender is not the owner\r\n\t */\r\n\tfunction transfer(address[] memory _newOwners, uint256 _id)\r\n\t\tpublic\r\n\t\tonlySelling(_id) // require state of certificate is 'SELLING'\r\n\t{\r\n\t\trequire(roleContract.hasRole(msg.sender,1), \"RealEstate: Require notary\");\r\n\t\trequire(\r\n\t\t\t!_checkExitInArray(_newOwners, msg.sender),\r\n\t\t\t\"RealEstate: Can't transfer to current owner\"\r\n\t\t);\r\n\t\t// require(_newOwners.length > 0, \"RealEstate: Require one owner at least\");\r\n\t\taddress[] memory _currentOwners = getOwnersOf(_id);\r\n\t\ttokenToOwners[_id] = _newOwners;\r\n\t\ttokenToState[_id] = State.ACTIVATED;\r\n\t\tdelete tokenToApprovals[_id];\r\n\t\temit Transfer(_currentOwners, _newOwners, _id, msg.sender);\r\n\t}\r\n\r\n\t/**\r\n\t * @notice Check state of certificate is 'ACTIVATED'\r\n\t * @param _id identifier of certificate\r\n\t * @return bool\r\n\t */\r\n\tfunction isActivated(uint256 _id) public view returns (bool) {\r\n\t\treturn tokenToState[_id] == State.ACTIVATED;\r\n\t}\r\n\r\n\t/**\r\n\t * @notice Check state of certificate is 'SELLING'\r\n\t * @param _id identifier of certificate\r\n\t * @return bool\r\n\t */\r\n\tfunction isSelling(uint256 _id) public view returns (bool) {\r\n\t\treturn tokenToState[_id] == State.SELLING;\r\n\t}\r\n\r\n\t// ------------------------------ Helper functions (internal functions) ------------------------------\r\n\r\n\t/**\r\n\t * @notice Check list address inclue single address\r\n\t * @param _array list address\r\n\t * @param _user\taddress want to check\r\n\t * @return bool\r\n\t */\r\n\tfunction _checkExitInArray(address[] memory _array, address _user)\r\n\t\tinternal\r\n\t\tpure\r\n\t\treturns (bool)\r\n\t{\r\n\t\tuint256 _arrayLength = _array.length;\r\n\t\tfor (uint8 i = 0; i < _arrayLength; i++) {\r\n\t\t\tif (_user == _array[i]) {\r\n\t\t\t\treturn true;\r\n\t\t\t}\r\n\t\t}\r\n\t\treturn false;\r\n\t}\r\n}\r\n",
  "sourcePath": "E:\\Desktop\\KLTN MAIN\\landtrade\\contracts\\RealEstate.sol",
  "compiler": {
    "name": "solc",
    "version": "0.5.16+commit.9c3226ce.Emscripten.clang"
  },
  "schemaVersion": "3.0.23",
  "updatedAt": "2020-04-14T11:28:35.338Z",
  "networkType": "ethereum",
  "devdoc": {
    "details": "Real estate management and transaction",
    "methods": {
      "activate(uint256)": {
        "details": "Require msg.sender is owner of certification and msg.sender has not activated Change state of certificate if all owner has activated"
      },
      "activateSale(uint256)": {
        "details": "require current token state is 'ACTIVATED'Require msg.sender is owner of certification and msg.sender has not activated Change state of certificate if all owner has activated"
      },
      "createCertificate((string,string,string,string,uint8,uint8,uint8),(uint8,uint8,string,string,string,string,string,string),string,string,string,string,address[])": {
        "details": "Require role notary and list owner does not contain msg.sender"
      },
      "getOwnerApproved(uint256)": {
        "params": {
          "_id": "id of certificate"
        },
        "return": "The list address of the owners approved"
      },
      "getOwnersOf(uint256)": {
        "params": {
          "_id": "The identifier of the certificate"
        },
        "return": "The list address of the owners of the certificate"
      },
      "isActivated(uint256)": {
        "params": {
          "_id": "identifier of certificate"
        },
        "return": "bool"
      },
      "isSelling(uint256)": {
        "params": {
          "_id": "identifier of certificate"
        },
        "return": "bool"
      },
      "transfer(address[],uint256)": {
        "details": "Only notary allowed && msg.sender is not the owner"
      }
    },
    "title": "RealEstate"
  },
  "userdoc": {
    "methods": {
      "activate(uint256)": {
        "notice": "Activate certificate (PENDDING => ACTIVATED)"
      },
      "activateSale(uint256)": {
        "notice": "Activate for sale"
      },
      "createCertificate((string,string,string,string,uint8,uint8,uint8),(uint8,uint8,string,string,string,string,string,string),string,string,string,string,address[])": {
        "notice": "create a new certificate with a struct"
      },
      "getOwnerApproved(uint256)": {
        "notice": "Get the owner approved for (sell || activate) depending on state of certificate"
      },
      "getOwnersOf(uint256)": {
        "notice": "Get the owner of a certificate"
      },
      "isActivated(uint256)": {
        "notice": "Check state of certificate is 'ACTIVATED'"
      },
      "isSelling(uint256)": {
        "notice": "Check state of certificate is 'SELLING'"
      },
      "transfer(address[],uint256)": {
        "notice": "Transfer ownership of certificate"
      }
    }
  }
}