{
  "contractName": "RealEstate",
  "abi": [
    {
      "inputs": [
        {
          "internalType": "contract IRBAC",
          "name": "_roleContract",
          "type": "address"
        }
      ],
      "payable": false,
      "stateMutability": "nonpayable",
      "type": "constructor"
    },
    {
      "anonymous": false,
      "inputs": [
        {
          "indexed": false,
          "internalType": "uint256",
          "name": "idCertificate",
          "type": "uint256"
        },
        {
          "indexed": false,
          "internalType": "address",
          "name": "owner",
          "type": "address"
        },
        {
          "indexed": false,
          "internalType": "enum RealEstate.State",
          "name": "state",
          "type": "uint8"
        }
      ],
      "name": "Activate",
      "type": "event"
    },
    {
      "anonymous": false,
      "inputs": [
        {
          "indexed": false,
          "internalType": "uint256",
          "name": "idCertificate",
          "type": "uint256"
        },
        {
          "indexed": false,
          "internalType": "address",
          "name": "owner",
          "type": "address"
        },
        {
          "indexed": false,
          "internalType": "enum RealEstate.State",
          "name": "state",
          "type": "uint8"
        }
      ],
      "name": "ActivateSale",
      "type": "event"
    },
    {
      "anonymous": false,
      "inputs": [
        {
          "indexed": false,
          "internalType": "uint256",
          "name": "idCertificate",
          "type": "uint256"
        }
      ],
      "name": "NewCertificate",
      "type": "event"
    },
    {
      "anonymous": false,
      "inputs": [
        {
          "indexed": false,
          "internalType": "address[]",
          "name": "oldOwner",
          "type": "address[]"
        },
        {
          "indexed": false,
          "internalType": "address[]",
          "name": "newOwner",
          "type": "address[]"
        },
        {
          "indexed": false,
          "internalType": "uint256",
          "name": "idCertificate",
          "type": "uint256"
        },
        {
          "indexed": true,
          "internalType": "address",
          "name": "notary",
          "type": "address"
        }
      ],
      "name": "Transfer",
      "type": "event"
    },
    {
      "constant": true,
      "inputs": [],
      "name": "certificateCount",
      "outputs": [
        {
          "internalType": "uint256",
          "name": "",
          "type": "uint256"
        }
      ],
      "payable": false,
      "stateMutability": "view",
      "type": "function"
    },
    {
      "constant": true,
      "inputs": [
        {
          "internalType": "uint256",
          "name": "",
          "type": "uint256"
        }
      ],
      "name": "tokenToCert",
      "outputs": [
        {
          "components": [
            {
              "internalType": "uint8",
              "name": "landLotNo",
              "type": "uint8"
            },
            {
              "internalType": "uint8",
              "name": "mapSheetNo",
              "type": "uint8"
            },
            {
              "internalType": "uint8",
              "name": "commonUseArea",
              "type": "uint8"
            },
            {
              "internalType": "uint8",
              "name": "privateUseArea",
              "type": "uint8"
            },
            {
              "internalType": "string",
              "name": "location",
              "type": "string"
            },
            {
              "internalType": "string",
              "name": "purposeOfUse",
              "type": "string"
            },
            {
              "internalType": "string",
              "name": "timeOfUse",
              "type": "string"
            },
            {
              "internalType": "string",
              "name": "originOfUse",
              "type": "string"
            }
          ],
          "internalType": "struct RealEstate.LandLot",
          "name": "landLot",
          "type": "tuple"
        },
        {
          "components": [
            {
              "internalType": "string",
              "name": "houseType",
              "type": "string"
            },
            {
              "internalType": "string",
              "name": "numberOfHouse",
              "type": "string"
            },
            {
              "internalType": "uint8",
              "name": "constructionArea",
              "type": "uint8"
            },
            {
              "internalType": "uint8",
              "name": "floorArea",
              "type": "uint8"
            },
            {
              "internalType": "string",
              "name": "level",
              "type": "string"
            },
            {
              "internalType": "string",
              "name": "numberOfFloor",
              "type": "string"
            },
            {
              "internalType": "string",
              "name": "formOfOwn",
              "type": "string"
            },
            {
              "internalType": "string",
              "name": "timeOfUse",
              "type": "string"
            }
          ],
          "internalType": "struct RealEstate.House",
          "name": "house",
          "type": "tuple"
        },
        {
          "internalType": "string",
          "name": "otherConstruction",
          "type": "string"
        },
        {
          "internalType": "string",
          "name": "prodForestIsArtificial",
          "type": "string"
        },
        {
          "internalType": "string",
          "name": "perennialTree",
          "type": "string"
        },
        {
          "internalType": "string",
          "name": "notice",
          "type": "string"
        }
      ],
      "payable": false,
      "stateMutability": "view",
      "type": "function"
    },
    {
      "constant": true,
      "inputs": [
        {
          "internalType": "uint256",
          "name": "",
          "type": "uint256"
        }
      ],
      "name": "tokenToNotary",
      "outputs": [
        {
          "internalType": "address",
          "name": "",
          "type": "address"
        }
      ],
      "payable": false,
      "stateMutability": "view",
      "type": "function"
    },
    {
      "constant": true,
      "inputs": [
        {
          "internalType": "uint256",
          "name": "",
          "type": "uint256"
        }
      ],
      "name": "tokenToState",
      "outputs": [
        {
          "internalType": "enum RealEstate.State",
          "name": "",
          "type": "uint8"
        }
      ],
      "payable": false,
      "stateMutability": "view",
      "type": "function"
    },
    {
      "constant": true,
      "inputs": [
        {
          "internalType": "uint256",
          "name": "_id",
          "type": "uint256"
        }
      ],
      "name": "getOwnersOf",
      "outputs": [
        {
          "internalType": "address[]",
          "name": "",
          "type": "address[]"
        }
      ],
      "payable": false,
      "stateMutability": "view",
      "type": "function"
    },
    {
      "constant": true,
      "inputs": [
        {
          "internalType": "uint256",
          "name": "_id",
          "type": "uint256"
        }
      ],
      "name": "getOwnerApproved",
      "outputs": [
        {
          "internalType": "address[]",
          "name": "",
          "type": "address[]"
        }
      ],
      "payable": false,
      "stateMutability": "view",
      "type": "function"
    },
    {
      "constant": false,
      "inputs": [
        {
          "components": [
            {
              "components": [
                {
                  "internalType": "uint8",
                  "name": "landLotNo",
                  "type": "uint8"
                },
                {
                  "internalType": "uint8",
                  "name": "mapSheetNo",
                  "type": "uint8"
                },
                {
                  "internalType": "uint8",
                  "name": "commonUseArea",
                  "type": "uint8"
                },
                {
                  "internalType": "uint8",
                  "name": "privateUseArea",
                  "type": "uint8"
                },
                {
                  "internalType": "string",
                  "name": "location",
                  "type": "string"
                },
                {
                  "internalType": "string",
                  "name": "purposeOfUse",
                  "type": "string"
                },
                {
                  "internalType": "string",
                  "name": "timeOfUse",
                  "type": "string"
                },
                {
                  "internalType": "string",
                  "name": "originOfUse",
                  "type": "string"
                }
              ],
              "internalType": "struct RealEstate.LandLot",
              "name": "landLot",
              "type": "tuple"
            },
            {
              "components": [
                {
                  "internalType": "string",
                  "name": "houseType",
                  "type": "string"
                },
                {
                  "internalType": "string",
                  "name": "numberOfHouse",
                  "type": "string"
                },
                {
                  "internalType": "uint8",
                  "name": "constructionArea",
                  "type": "uint8"
                },
                {
                  "internalType": "uint8",
                  "name": "floorArea",
                  "type": "uint8"
                },
                {
                  "internalType": "string",
                  "name": "level",
                  "type": "string"
                },
                {
                  "internalType": "string",
                  "name": "numberOfFloor",
                  "type": "string"
                },
                {
                  "internalType": "string",
                  "name": "formOfOwn",
                  "type": "string"
                },
                {
                  "internalType": "string",
                  "name": "timeOfUse",
                  "type": "string"
                }
              ],
              "internalType": "struct RealEstate.House",
              "name": "house",
              "type": "tuple"
            },
            {
              "internalType": "string",
              "name": "otherConstruction",
              "type": "string"
            },
            {
              "internalType": "string",
              "name": "prodForestIsArtificial",
              "type": "string"
            },
            {
              "internalType": "string",
              "name": "perennialTree",
              "type": "string"
            },
            {
              "internalType": "string",
              "name": "notice",
              "type": "string"
            }
          ],
          "internalType": "struct RealEstate.Certificate",
          "name": "_cert",
          "type": "tuple"
        },
        {
          "internalType": "address[]",
          "name": "_owners",
          "type": "address[]"
        }
      ],
      "name": "createCertificate",
      "outputs": [],
      "payable": false,
      "stateMutability": "nonpayable",
      "type": "function"
    },
    {
      "constant": false,
      "inputs": [
        {
          "internalType": "uint256",
          "name": "_id",
          "type": "uint256"
        }
      ],
      "name": "activate",
      "outputs": [],
      "payable": false,
      "stateMutability": "nonpayable",
      "type": "function"
    },
    {
      "constant": false,
      "inputs": [
        {
          "internalType": "uint256",
          "name": "_id",
          "type": "uint256"
        }
      ],
      "name": "activateSale",
      "outputs": [],
      "payable": false,
      "stateMutability": "nonpayable",
      "type": "function"
    },
    {
      "constant": false,
      "inputs": [
        {
          "internalType": "address[]",
          "name": "_newOwners",
          "type": "address[]"
        },
        {
          "internalType": "uint256",
          "name": "_id",
          "type": "uint256"
        }
      ],
      "name": "transfer",
      "outputs": [],
      "payable": false,
      "stateMutability": "nonpayable",
      "type": "function"
    },
    {
      "constant": true,
      "inputs": [
        {
          "internalType": "uint256",
          "name": "_id",
          "type": "uint256"
        }
      ],
      "name": "isActivated",
      "outputs": [
        {
          "internalType": "bool",
          "name": "",
          "type": "bool"
        }
      ],
      "payable": false,
      "stateMutability": "view",
      "type": "function"
    },
    {
      "constant": true,
      "inputs": [
        {
          "internalType": "uint256",
          "name": "_id",
          "type": "uint256"
        }
      ],
      "name": "isSelling",
      "outputs": [
        {
          "internalType": "bool",
          "name": "",
          "type": "bool"
        }
      ],
      "payable": false,
      "stateMutability": "view",
      "type": "function"
    }
  ],
  "bytecode": "0x60806040523480156200001157600080fd5b506040516200300438038062003004833981810160405262000037919081019062000095565b806000806101000a81548173ffffffffffffffffffffffffffffffffffffffff021916908373ffffffffffffffffffffffffffffffffffffffff1602179055505062000123565b6000815190506200008f8162000109565b92915050565b600060208284031215620000a857600080fd5b6000620000b8848285016200007e565b91505092915050565b6000620000ce82620000e9565b9050919050565b6000620000e282620000c1565b9050919050565b600073ffffffffffffffffffffffffffffffffffffffff82169050919050565b6200011481620000d5565b81146200012057600080fd5b50565b612ed180620001336000396000f3fe608060405234801561001057600080fd5b50600436106100b45760003560e01c80637ab12bb6116100715780637ab12bb6146101b8578063b260c42a146101d4578063bfb5d8fa146101f0578063cef6d1d514610220578063f25f7cf514610250578063fa63fac71461026c576100b4565b80631939c1ff146100b957806320e124f7146100d557806331809dcf14610105578063441b777b1461013557806352d7b89c1461016a57806374be166e14610188575b600080fd5b6100d360048036036100ce91908101906122dd565b61029c565b005b6100ef60048036036100ea91908101906123c6565b6104fc565b6040516100fc9190612a36565b60405180910390f35b61011f600480360361011a91908101906123c6565b61053e565b60405161012c9190612a36565b60405180910390f35b61014f600480360361014a91908101906123c6565b610581565b60405161016196959493929190612b4c565b60405180910390f35b610172610f35565b60405161017f9190612bd7565b60405180910390f35b6101a2600480360361019d91908101906123c6565b610f3b565b6040516101af919061298b565b60405180910390f35b6101d260048036036101cd91908101906123c6565b610f6e565b005b6101ee60048036036101e991908101906123c6565b6112ba565b005b61020a600480360361020591908101906123c6565b6115db565b60405161021791906129cf565b60405180910390f35b61023a600480360361023591908101906123c6565b61167c565b60405161024791906129cf565b60405180910390f35b61026a6004803603610265919081019061235a565b61171d565b005b610286600480360361028191908101906123c6565b611bb4565b6040516102939190612a51565b60405180910390f35b806102a6816104fc565b6102e5576040517f08c379a00000000000000000000000000000000000000000000000000000000081526004016102dc90612aac565b60405180910390fd5b6000809054906101000a900473ffffffffffffffffffffffffffffffffffffffff1673ffffffffffffffffffffffffffffffffffffffff166395a8c58d3360016040518363ffffffff1660e01b81526004016103429291906129a6565b60206040518083038186803b15801561035a57600080fd5b505afa15801561036e573d6000803e3d6000fd5b505050506040513d601f19601f820116820180604052506103929190810190612331565b6103d1576040517f08c379a00000000000000000000000000000000000000000000000000000000081526004016103c890612b2c565b60405180910390fd5b6103db8333611bd4565b1561041b576040517f08c379a000000000000000000000000000000000000000000000000000000000815260040161041290612a6c565b60405180910390fd5b6060610426836115db565b90508360026000858152602001908152602001600020908051906020019061044f929190611c77565b5060016004600085815260200190815260200160002060006101000a81548160ff0219169083600281111561048057fe5b02179055506003600084815260200190815260200160002060006104a49190611d01565b3373ffffffffffffffffffffffffffffffffffffffff167f6d3779dd89c026ff2bfc16c63995bbe2778c24b8765bb1260983974368d2e5c88286866040516104ee939291906129f1565b60405180910390a250505050565b600060028081111561050a57fe5b6004600084815260200190815260200160002060009054906101000a900460ff16600281111561053657fe5b149050919050565b60006001600281111561054d57fe5b6004600084815260200190815260200160002060009054906101000a900460ff16600281111561057957fe5b149050919050565b600660205280600052604060002060009150905080600001604051806101000160405290816000820160009054906101000a900460ff1660ff1660ff1681526020016000820160019054906101000a900460ff1660ff1660ff1681526020016000820160029054906101000a900460ff1660ff1660ff1681526020016000820160039054906101000a900460ff1660ff1660ff168152602001600182018054600181600116156101000203166002900480601f0160208091040260200160405190810160405280929190818152602001828054600181600116156101000203166002900480156106b25780601f10610687576101008083540402835291602001916106b2565b820191906000526020600020905b81548152906001019060200180831161069557829003601f168201915b50505050508152602001600282018054600181600116156101000203166002900480601f0160208091040260200160405190810160405280929190818152602001828054600181600116156101000203166002900480156107545780601f1061072957610100808354040283529160200191610754565b820191906000526020600020905b81548152906001019060200180831161073757829003601f168201915b50505050508152602001600382018054600181600116156101000203166002900480601f0160208091040260200160405190810160405280929190818152602001828054600181600116156101000203166002900480156107f65780601f106107cb576101008083540402835291602001916107f6565b820191906000526020600020905b8154815290600101906020018083116107d957829003601f168201915b50505050508152602001600482018054600181600116156101000203166002900480601f0160208091040260200160405190810160405280929190818152602001828054600181600116156101000203166002900480156108985780601f1061086d57610100808354040283529160200191610898565b820191906000526020600020905b81548152906001019060200180831161087b57829003601f168201915b505050505081525050908060050160405180610100016040529081600082018054600181600116156101000203166002900480601f01602080910402602001604051908101604052809291908181526020018280546001816001161561010002031660029004801561094b5780601f106109205761010080835404028352916020019161094b565b820191906000526020600020905b81548152906001019060200180831161092e57829003601f168201915b50505050508152602001600182018054600181600116156101000203166002900480601f0160208091040260200160405190810160405280929190818152602001828054600181600116156101000203166002900480156109ed5780601f106109c2576101008083540402835291602001916109ed565b820191906000526020600020905b8154815290600101906020018083116109d057829003601f168201915b505050505081526020016002820160009054906101000a900460ff1660ff1660ff1681526020016002820160019054906101000a900460ff1660ff1660ff168152602001600382018054600181600116156101000203166002900480601f016020809104026020016040519081016040528092919081815260200182805460018160011615610100020316600290048015610ac95780601f10610a9e57610100808354040283529160200191610ac9565b820191906000526020600020905b815481529060010190602001808311610aac57829003601f168201915b50505050508152602001600482018054600181600116156101000203166002900480601f016020809104026020016040519081016040528092919081815260200182805460018160011615610100020316600290048015610b6b5780601f10610b4057610100808354040283529160200191610b6b565b820191906000526020600020905b815481529060010190602001808311610b4e57829003601f168201915b50505050508152602001600582018054600181600116156101000203166002900480601f016020809104026020016040519081016040528092919081815260200182805460018160011615610100020316600290048015610c0d5780601f10610be257610100808354040283529160200191610c0d565b820191906000526020600020905b815481529060010190602001808311610bf057829003601f168201915b50505050508152602001600682018054600181600116156101000203166002900480601f016020809104026020016040519081016040528092919081815260200182805460018160011615610100020316600290048015610caf5780601f10610c8457610100808354040283529160200191610caf565b820191906000526020600020905b815481529060010190602001808311610c9257829003601f168201915b5050505050815250509080600c018054600181600116156101000203166002900480601f016020809104026020016040519081016040528092919081815260200182805460018160011615610100020316600290048015610d515780601f10610d2657610100808354040283529160200191610d51565b820191906000526020600020905b815481529060010190602001808311610d3457829003601f168201915b50505050509080600d018054600181600116156101000203166002900480601f016020809104026020016040519081016040528092919081815260200182805460018160011615610100020316600290048015610def5780601f10610dc457610100808354040283529160200191610def565b820191906000526020600020905b815481529060010190602001808311610dd257829003601f168201915b50505050509080600e018054600181600116156101000203166002900480601f016020809104026020016040519081016040528092919081815260200182805460018160011615610100020316600290048015610e8d5780601f10610e6257610100808354040283529160200191610e8d565b820191906000526020600020905b815481529060010190602001808311610e7057829003601f168201915b50505050509080600f018054600181600116156101000203166002900480601f016020809104026020016040519081016040528092919081815260200182805460018160011615610100020316600290048015610f2b5780601f10610f0057610100808354040283529160200191610f2b565b820191906000526020600020905b815481529060010190602001808311610f0e57829003601f168201915b5050505050905086565b60015481565b60056020528060005260406000206000915054906101000a900473ffffffffffffffffffffffffffffffffffffffff1681565b80610f788161053e565b610fb7576040517f08c379a0000000000000000000000000000000000000000000000000000000008152600401610fae90612a8c565b60405180910390fd5b816110596002600083815260200190815260200160002080548060200260200160405190810160405280929190818152602001828054801561104e57602002820191906000526020600020905b8160009054906101000a900473ffffffffffffffffffffffffffffffffffffffff1673ffffffffffffffffffffffffffffffffffffffff1681526020019060010190808311611004575b505050505033611bd4565b611098576040517f08c379a000000000000000000000000000000000000000000000000000000000815260040161108f90612aec565b60405180910390fd5b6111396003600085815260200190815260200160002080548060200260200160405190810160405280929190818152602001828054801561112e57602002820191906000526020600020905b8160009054906101000a900473ffffffffffffffffffffffffffffffffffffffff1673ffffffffffffffffffffffffffffffffffffffff16815260200190600101908083116110e4575b505050505033611bd4565b15611179576040517f08c379a000000000000000000000000000000000000000000000000000000000815260040161117090612b0c565b60405180910390fd5b600360008481526020019081526020016000203390806001815401808255809150509060018203906000526020600020016000909192909190916101000a81548173ffffffffffffffffffffffffffffffffffffffff021916908373ffffffffffffffffffffffffffffffffffffffff1602179055505060026000848152602001908152602001600020805490506003600085815260200190815260200160002080549050141561125a5760026004600085815260200190815260200160002060006101000a81548160ff0219169083600281111561125457fe5b02179055505b7f1673aa0c1ba96f1b1dd67403df96765c006867468c17287b1025a17f493661de83336004600087815260200190815260200160002060009054906101000a900460ff166040516112ad93929190612bf2565b60405180910390a1505050565b8061135c6002600083815260200190815260200160002080548060200260200160405190810160405280929190818152602001828054801561135157602002820191906000526020600020905b8160009054906101000a900473ffffffffffffffffffffffffffffffffffffffff1673ffffffffffffffffffffffffffffffffffffffff1681526020019060010190808311611307575b505050505033611bd4565b61139b576040517f08c379a000000000000000000000000000000000000000000000000000000000815260040161139290612aec565b60405180910390fd5b61143c6003600084815260200190815260200160002080548060200260200160405190810160405280929190818152602001828054801561143157602002820191906000526020600020905b8160009054906101000a900473ffffffffffffffffffffffffffffffffffffffff1673ffffffffffffffffffffffffffffffffffffffff16815260200190600101908083116113e7575b505050505033611bd4565b1561147c576040517f08c379a000000000000000000000000000000000000000000000000000000000815260040161147390612b0c565b60405180910390fd5b600360008381526020019081526020016000203390806001815401808255809150509060018203906000526020600020016000909192909190916101000a81548173ffffffffffffffffffffffffffffffffffffffff021916908373ffffffffffffffffffffffffffffffffffffffff1602179055505060026000838152602001908152602001600020805490506003600084815260200190815260200160002080549050141561157c5760016004600084815260200190815260200160002060006101000a81548160ff0219169083600281111561155757fe5b021790555060036000838152602001908152602001600020600061157b9190611d01565b5b7fe9d73e2004f3048a08f0b9e825d2618190a50fe92f987d3b76d90fc3d998369d82336004600086815260200190815260200160002060009054906101000a900460ff166040516115cf93929190612bf2565b60405180910390a15050565b60606002600083815260200190815260200160002080548060200260200160405190810160405280929190818152602001828054801561167057602002820191906000526020600020905b8160009054906101000a900473ffffffffffffffffffffffffffffffffffffffff1673ffffffffffffffffffffffffffffffffffffffff1681526020019060010190808311611626575b50505050509050919050565b60606003600083815260200190815260200160002080548060200260200160405190810160405280929190818152602001828054801561171157602002820191906000526020600020905b8160009054906101000a900473ffffffffffffffffffffffffffffffffffffffff1673ffffffffffffffffffffffffffffffffffffffff16815260200190600101908083116116c7575b50505050509050919050565b6000809054906101000a900473ffffffffffffffffffffffffffffffffffffffff1673ffffffffffffffffffffffffffffffffffffffff166395a8c58d3360016040518363ffffffff1660e01b815260040161177a9291906129a6565b60206040518083038186803b15801561179257600080fd5b505afa1580156117a6573d6000803e3d6000fd5b505050506040513d601f19601f820116820180604052506117ca9190810190612331565b611809576040517f08c379a000000000000000000000000000000000000000000000000000000000815260040161180090612b2c565b60405180910390fd5b6118138133611bd4565b15611853576040517f08c379a000000000000000000000000000000000000000000000000000000000815260040161184a90612acc565b60405180910390fd5b61186860018054611c5b90919063ffffffff16565b6001819055508160066000600154815260200190815260200160002060008201518160000160008201518160000160006101000a81548160ff021916908360ff16021790555060208201518160000160016101000a81548160ff021916908360ff16021790555060408201518160000160026101000a81548160ff021916908360ff16021790555060608201518160000160036101000a81548160ff021916908360ff160217905550608082015181600101908051906020019061192d929190611d22565b5060a082015181600201908051906020019061194a929190611d22565b5060c0820151816003019080519060200190611967929190611d22565b5060e0820151816004019080519060200190611984929190611d22565b50505060208201518160050160008201518160000190805190602001906119ac929190611d22565b5060208201518160010190805190602001906119c9929190611d22565b5060408201518160020160006101000a81548160ff021916908360ff16021790555060608201518160020160016101000a81548160ff021916908360ff1602179055506080820151816003019080519060200190611a28929190611d22565b5060a0820151816004019080519060200190611a45929190611d22565b5060c0820151816005019080519060200190611a62929190611d22565b5060e0820151816006019080519060200190611a7f929190611d22565b505050604082015181600c019080519060200190611a9e929190611d22565b50606082015181600d019080519060200190611abb929190611d22565b50608082015181600e019080519060200190611ad8929190611d22565b5060a082015181600f019080519060200190611af5929190611d22565b50905050806002600060015481526020019081526020016000209080519060200190611b22929190611c77565b503360056000600154815260200190815260200160002060006101000a81548173ffffffffffffffffffffffffffffffffffffffff021916908373ffffffffffffffffffffffffffffffffffffffff1602179055507fdff2ada220202af5a9dc10785ee9738b55c7e2ea1e45b863f981feab142f64e0600154604051611ba89190612bd7565b60405180910390a15050565b60046020528060005260406000206000915054906101000a900460ff1681565b6000808351905060008090505b818160ff161015611c4e57848160ff1681518110611bfb57fe5b602002602001015173ffffffffffffffffffffffffffffffffffffffff168473ffffffffffffffffffffffffffffffffffffffff161415611c4157600192505050611c55565b8080600101915050611be1565b5060009150505b92915050565b600080828401905083811015611c6d57fe5b8091505092915050565b828054828255906000526020600020908101928215611cf0579160200282015b82811115611cef5782518260006101000a81548173ffffffffffffffffffffffffffffffffffffffff021916908373ffffffffffffffffffffffffffffffffffffffff16021790555091602001919060010190611c97565b5b509050611cfd9190611da2565b5090565b5080546000825590600052602060002090810190611d1f9190611de5565b50565b828054600181600116156101000203166002900490600052602060002090601f016020900481019282601f10611d6357805160ff1916838001178555611d91565b82800160010185558215611d91579182015b82811115611d90578251825591602001919060010190611d75565b5b509050611d9e9190611de5565b5090565b611de291905b80821115611dde57600081816101000a81549073ffffffffffffffffffffffffffffffffffffffff021916905550600101611da8565b5090565b90565b611e0791905b80821115611e03576000816000905550600101611deb565b5090565b90565b600081359050611e1981612e32565b92915050565b600082601f830112611e3057600080fd5b8135611e43611e3e82612c56565b612c29565b91508181835260208401935060208101905083856020840282011115611e6857600080fd5b60005b83811015611e985781611e7e8882611e0a565b845260208401935060208301925050600181019050611e6b565b5050505092915050565b600081519050611eb181612e49565b92915050565b600082601f830112611ec857600080fd5b8135611edb611ed682612c7e565b612c29565b91508082526020830160208301858383011115611ef757600080fd5b611f02838284612dd2565b50505092915050565b600060c08284031215611f1d57600080fd5b611f2760c0612c29565b9050600082013567ffffffffffffffff811115611f4357600080fd5b611f4f8482850161218d565b600083015250602082013567ffffffffffffffff811115611f6f57600080fd5b611f7b84828501612037565b602083015250604082013567ffffffffffffffff811115611f9b57600080fd5b611fa784828501611eb7565b604083015250606082013567ffffffffffffffff811115611fc757600080fd5b611fd384828501611eb7565b606083015250608082013567ffffffffffffffff811115611ff357600080fd5b611fff84828501611eb7565b60808301525060a082013567ffffffffffffffff81111561201f57600080fd5b61202b84828501611eb7565b60a08301525092915050565b6000610100828403121561204a57600080fd5b612055610100612c29565b9050600082013567ffffffffffffffff81111561207157600080fd5b61207d84828501611eb7565b600083015250602082013567ffffffffffffffff81111561209d57600080fd5b6120a984828501611eb7565b60208301525060406120bd848285016122c8565b60408301525060606120d1848285016122c8565b606083015250608082013567ffffffffffffffff8111156120f157600080fd5b6120fd84828501611eb7565b60808301525060a082013567ffffffffffffffff81111561211d57600080fd5b61212984828501611eb7565b60a08301525060c082013567ffffffffffffffff81111561214957600080fd5b61215584828501611eb7565b60c08301525060e082013567ffffffffffffffff81111561217557600080fd5b61218184828501611eb7565b60e08301525092915050565b600061010082840312156121a057600080fd5b6121ab610100612c29565b905060006121bb848285016122c8565b60008301525060206121cf848285016122c8565b60208301525060406121e3848285016122c8565b60408301525060606121f7848285016122c8565b606083015250608082013567ffffffffffffffff81111561221757600080fd5b61222384828501611eb7565b60808301525060a082013567ffffffffffffffff81111561224357600080fd5b61224f84828501611eb7565b60a08301525060c082013567ffffffffffffffff81111561226f57600080fd5b61227b84828501611eb7565b60c08301525060e082013567ffffffffffffffff81111561229b57600080fd5b6122a784828501611eb7565b60e08301525092915050565b6000813590506122c281612e60565b92915050565b6000813590506122d781612e77565b92915050565b600080604083850312156122f057600080fd5b600083013567ffffffffffffffff81111561230a57600080fd5b61231685828601611e1f565b9250506020612327858286016122b3565b9150509250929050565b60006020828403121561234357600080fd5b600061235184828501611ea2565b91505092915050565b6000806040838503121561236d57600080fd5b600083013567ffffffffffffffff81111561238757600080fd5b61239385828601611f0b565b925050602083013567ffffffffffffffff8111156123b057600080fd5b6123bc85828601611e1f565b9150509250929050565b6000602082840312156123d857600080fd5b60006123e6848285016122b3565b91505092915050565b60006123fb8383612416565b60208301905092915050565b61241081612d78565b82525050565b61241f81612d10565b82525050565b61242e81612d10565b82525050565b600061243f82612cba565b6124498185612cdd565b935061245483612caa565b8060005b8381101561248557815161246c88826123ef565b975061247783612cd0565b925050600181019050612458565b5085935050505092915050565b61249b81612d22565b82525050565b6124aa81612d8a565b82525050565b6124b981612d9c565b82525050565b60006124ca82612cc5565b6124d48185612cee565b93506124e4818560208601612de1565b6124ed81612e14565b840191505092915050565b600061250382612cc5565b61250d8185612cff565b935061251d818560208601612de1565b61252681612e14565b840191505092915050565b600061253e602b83612cff565b91507f5265616c4573746174653a2043616e2774207472616e7366657220746f20637560008301527f7272656e74206f776e65720000000000000000000000000000000000000000006020830152604082019050919050565b60006125a4602183612cff565b91507f5265616c4573746174653a20506c65617365206163746976617465206669727360008301527f74000000000000000000000000000000000000000000000000000000000000006020830152604082019050919050565b600061260a603283612cff565b91507f5265616c4573746174653a2054686520636572746966696361746520646f657360008301527f6e277420616c6c6f7720666f722073616c6500000000000000000000000000006020830152604082019050919050565b6000612670603b83612cff565b91507f5265616c4573746174653a20596f7520617265206e6f7420616c6c6f7765642060008301527f746f2063726561746520796f7572206f776e2070726f706572747900000000006020830152604082019050919050565b60006126d6602b83612cff565b91507f5265616c4573746174653a20596f75277265206e6f74206f776e6572206f662060008301527f63657274696669636174650000000000000000000000000000000000000000006020830152604082019050919050565b600061273c602483612cff565b91507f5265616c4573746174653a204163636f756e7420616c7265616479206170707260008301527f6f766564000000000000000000000000000000000000000000000000000000006020830152604082019050919050565b60006127a2601a83612cff565b91507f5265616c4573746174653a2052657175697265206e6f746172790000000000006000830152602082019050919050565b60006101008301600083015184820360008601526127f382826124bf565b9150506020830151848203602086015261280d82826124bf565b9150506040830151612822604086018261297c565b506060830151612835606086018261297c565b506080830151848203608086015261284d82826124bf565b91505060a083015184820360a086015261286782826124bf565b91505060c083015184820360c086015261288182826124bf565b91505060e083015184820360e086015261289b82826124bf565b9150508091505092915050565b6000610100830160008301516128c1600086018261297c565b5060208301516128d4602086018261297c565b5060408301516128e7604086018261297c565b5060608301516128fa606086018261297c565b506080830151848203608086015261291282826124bf565b91505060a083015184820360a086015261292c82826124bf565b91505060c083015184820360c086015261294682826124bf565b91505060e083015184820360e086015261296082826124bf565b9150508091505092915050565b61297681612d61565b82525050565b61298581612d6b565b82525050565b60006020820190506129a06000830184612425565b92915050565b60006040820190506129bb6000830185612407565b6129c860208301846124b0565b9392505050565b600060208201905081810360008301526129e98184612434565b905092915050565b60006060820190508181036000830152612a0b8186612434565b90508181036020830152612a1f8185612434565b9050612a2e604083018461296d565b949350505050565b6000602082019050612a4b6000830184612492565b92915050565b6000602082019050612a6660008301846124a1565b92915050565b60006020820190508181036000830152612a8581612531565b9050919050565b60006020820190508181036000830152612aa581612597565b9050919050565b60006020820190508181036000830152612ac5816125fd565b9050919050565b60006020820190508181036000830152612ae581612663565b9050919050565b60006020820190508181036000830152612b05816126c9565b9050919050565b60006020820190508181036000830152612b258161272f565b9050919050565b60006020820190508181036000830152612b4581612795565b9050919050565b600060c0820190508181036000830152612b6681896128a8565b90508181036020830152612b7a81886127d5565b90508181036040830152612b8e81876124f8565b90508181036060830152612ba281866124f8565b90508181036080830152612bb681856124f8565b905081810360a0830152612bca81846124f8565b9050979650505050505050565b6000602082019050612bec600083018461296d565b92915050565b6000606082019050612c07600083018661296d565b612c146020830185612407565b612c2160408301846124a1565b949350505050565b6000604051905081810181811067ffffffffffffffff82111715612c4c57600080fd5b8060405250919050565b600067ffffffffffffffff821115612c6d57600080fd5b602082029050602081019050919050565b600067ffffffffffffffff821115612c9557600080fd5b601f19601f8301169050602081019050919050565b6000819050602082019050919050565b600081519050919050565b600081519050919050565b6000602082019050919050565b600082825260208201905092915050565b600082825260208201905092915050565b600082825260208201905092915050565b6000612d1b82612d41565b9050919050565b60008115159050919050565b6000819050612d3c82612e25565b919050565b600073ffffffffffffffffffffffffffffffffffffffff82169050919050565b6000819050919050565b600060ff82169050919050565b6000612d8382612dae565b9050919050565b6000612d9582612d2e565b9050919050565b6000612da782612d6b565b9050919050565b6000612db982612dc0565b9050919050565b6000612dcb82612d41565b9050919050565b82818337600083830152505050565b60005b83811015612dff578082015181840152602081019050612de4565b83811115612e0e576000848401525b50505050565b6000601f19601f8301169050919050565b60038110612e2f57fe5b50565b612e3b81612d10565b8114612e4657600080fd5b50565b612e5281612d22565b8114612e5d57600080fd5b50565b612e6981612d61565b8114612e7457600080fd5b50565b612e8081612d6b565b8114612e8b57600080fd5b5056fea365627a7a72315820b792358643decbe752f08549521637923d129cf25696f393969198d0aade64766c6578706572696d656e74616cf564736f6c63430005100040",
  "source": "pragma solidity >=0.4.21 <0.7.0;\npragma experimental ABIEncoderV2;\n\nimport \"./SafeMath.sol\";\n\n\ninterface IRBAC {\n\t/**\n\t * @param _account account to check roleContract\n\t * @param _role uint(enum) => uint8 0: SUPER_ADMIN, 1: NOTARY\n\t * @return bool\n\t */\n\tfunction hasRole(address _account, uint8 _role) external view returns (bool);\n}\n\n\n/**\n * @title RealEstate\n * @dev Real estate management and transaction\n */\n\ncontract RealEstate {\n\tusing SafeMath for uint256;\n\t// ------------------------------ Variables ------------------------------\n\tIRBAC roleContract;\t\t// reference to contract RoleBasedAcl\n\t// number of certificate (token id)\n\tuint256 public certificateCount;\n\t// State of certificate\n\tenum State { PENDDING, ACTIVATED, SELLING } //sate of token PENDDING: 0, ACTIVATED: 1, SELLING: 2\n\n\tstruct LandLot {\n\t\tuint8 landLotNo;\n\t\tuint8 mapSheetNo;\n\t\tuint8 commonUseArea;\n\t\tuint8 privateUseArea;\n\t\tstring location;\n\t\tstring purposeOfUse;\n\t\tstring timeOfUse;\n\t\tstring originOfUse;\n\t}\n\n\tstruct House {\n\t\tstring houseType;\n\t\tstring numberOfHouse;\n\t\tuint8 constructionArea;\n\t\tuint8 floorArea;\n\t\tstring level;\n\t\tstring numberOfFloor;\n\t\tstring formOfOwn;\n\t\tstring timeOfUse;\n\t}\n\n\tstruct Certificate {\n\t\tLandLot landLot;\n\t\tHouse house;\n\t\tstring otherConstruction;\n\t\tstring prodForestIsArtificial;\n\t\tstring perennialTree;\n\t\tstring notice;\n\t}\n\n\t// mapping token to owners\n\tmapping(uint256 => address[]) tokenToOwners;\n\t// mapping token to owner approved (activate || sell)\n\tmapping(uint256 => address[]) tokenToApprovals;\n\t// mapping token to state of token\n\tmapping(uint256 => State) public tokenToState; // Default: 0 => 'PENDDING'\n\t// mapping token to notary\n\tmapping(uint256 => address) public tokenToNotary;\n  // mapping token to certificate\n  mapping(uint256 => Certificate) public tokenToCert;\n\n\t// ------------------------------ Events ------------------------------\n\t/// @dev Emits when a new certificate created.\n\tevent NewCertificate(\n\t\tuint256 idCertificate\n\t);\n\n\t/// @dev This emits when ownership of any NFTs changes by any mechanism\n\tevent Transfer(\n\t\taddress[] oldOwner,\n\t\taddress[] newOwner,\n\t\tuint256 idCertificate,\n\t\taddress indexed notary\n\t);\n\n\t/// @dev Emits when the owner activate certificate (PENDDING => ACTIVATED)\n\tevent Activate(uint256 idCertificate, address owner, State state);\n\n\t/// @dev Emits when the owner activate sale for certificate (ACTIVATED => SELLING)\n\tevent ActivateSale(uint256 idCertificate, address owner, State state);\n\n\tconstructor(IRBAC _roleContract) public{\n\t\t// Initialize roleContract\n\t\troleContract = _roleContract;\n\t}\n\n\t// ------------------------------ Modifiers ------------------------------\n\n\tmodifier onlyActivated(uint256 _id) {\n\t\trequire(isActivated(_id), \"RealEstate: Please activate first\");\n\t\t_;\n\t}\n\n\tmodifier onlySelling(uint256 _id) {\n\t\trequire(isSelling(_id), \"RealEstate: The certificate doesn't allow for sale\");\n\t\t_;\n\t}\n\n\tmodifier onlyOwnerOf(uint256 _id) {\n\t\trequire(\n\t\t\t_checkExitInArray(tokenToOwners[_id], msg.sender),\n\t\t\t\"RealEstate: You're not owner of certificate\"\n\t\t);\n\t\t_;\n\t}\n\n\t// ------------------------------ View functions ------------------------------\n\n\t/**\n\t * @notice Get the owner of a certificate\n\t * @param _id The identifier of the certificate\n\t * @return The list address of the owners of the certificate\n\t */\n\tfunction getOwnersOf(uint256 _id) public view returns (address[] memory) {\n\t\treturn tokenToOwners[_id];\n\t}\n\n\t/**\n\t * @notice Get the owner approved for (sell || activate) depending on state of certificate\n\t * @param _id id of certificate\n\t * @return The list address of the owners approved\n\t */\n\tfunction getOwnerApproved(uint256 _id) public view returns (address[] memory) {\n\t\treturn tokenToApprovals[_id];\n\t}\n\n\t// ------------------------------ Core public functions ------------------------------\n\n\t/**\n\t * @notice create a new certificate with a struct\n\t * @dev Require role notary and list owner does not contain msg.sender\n\t */\n\tfunction createCertificate(\n    Certificate memory _cert,\n\t\taddress[] memory _owners\n\t) public {\n\t\trequire(roleContract.hasRole(msg.sender,1), \"RealEstate: Require notary\");\n\t\t// require owner not to be notary(msg.sender)\n\t\trequire(\n\t\t\t!_checkExitInArray(_owners, msg.sender),\n\t\t\t\"RealEstate: You are not allowed to create your own property\"\n\t\t);\n\t\tcertificateCount = certificateCount.add(1);\n\t\ttokenToCert[certificateCount] = _cert;\n\t\ttokenToOwners[certificateCount] = _owners;\n\t\ttokenToNotary[certificateCount] = msg.sender;\n\t\temit NewCertificate(\n\t\t\tcertificateCount\n\t\t);\n\t}\n\n\t/**\n\t * @notice Activate certificate (PENDDING => ACTIVATED)\n\t * @dev Require msg.sender is owner of certification and msg.sender has not activated\n\t * Change state of certificate if all owner has activated\n\t */\n\tfunction activate(uint256 _id) public onlyOwnerOf(_id) {\n\t\trequire(\n\t\t\t!_checkExitInArray(tokenToApprovals[_id], msg.sender),\n\t\t\t\"RealEstate: Account already approved\"\n\t\t);\n\t\t// store msg.sender to list approved\n\t\ttokenToApprovals[_id].push(msg.sender);\n\t\t// if all owner approved => set state of certificate to 'ACTIVATED'\n\t\tif (tokenToApprovals[_id].length == tokenToOwners[_id].length) {\n\t\t\ttokenToState[_id] = State.ACTIVATED;\n\t\t\t// set user approve to null\n\t\t\tdelete tokenToApprovals[_id];\n\t\t}\n\t\temit Activate(_id, msg.sender, tokenToState[_id]);\n\t}\n\n\t/**\n\t * @notice Activate for sale\n\t * @dev require current token state is 'ACTIVATED'\n\t * @dev Require msg.sender is owner of certification and msg.sender has not activated\n\t * Change state of certificate if all owner has activated\n\t */\n\tfunction activateSale(uint256 _id) public onlyActivated(_id) onlyOwnerOf(_id) {\n\t\t// require msg.sender dot not ACTIVATED\n\t\trequire(\n\t\t\t!_checkExitInArray(tokenToApprovals[_id], msg.sender),\n\t\t\t\"RealEstate: Account already approved\"\n\t\t);\n\t\t// store msg.sender to list approved\n\t\ttokenToApprovals[_id].push(msg.sender);\n\t\t// if all owner approved => set state of certificate to 'SELLING'\n\t\tif (tokenToApprovals[_id].length == tokenToOwners[_id].length) {\n\t\t\ttokenToState[_id] = State.SELLING;\n\t\t}\n\t\temit ActivateSale(_id, msg.sender, tokenToState[_id]);\n\t}\n\n\t/**\n\t * @notice Transfer ownership of certificate\n\t * @dev Only notary allowed && msg.sender is not the owner\n\t */\n\tfunction transfer(address[] memory _newOwners, uint256 _id)\n\t\tpublic\n\t\tonlySelling(_id) // require state of certificate is 'SELLING'\n\t{\n\t\trequire(roleContract.hasRole(msg.sender,1), \"RealEstate: Require notary\");\n\t\trequire(\n\t\t\t!_checkExitInArray(_newOwners, msg.sender),\n\t\t\t\"RealEstate: Can't transfer to current owner\"\n\t\t);\n\t\t// require(_newOwners.length > 0, \"RealEstate: Require one owner at least\");\n\t\taddress[] memory _currentOwners = getOwnersOf(_id);\n\t\ttokenToOwners[_id] = _newOwners;\n\t\ttokenToState[_id] = State.ACTIVATED;\n\t\tdelete tokenToApprovals[_id];\n\t\temit Transfer(_currentOwners, _newOwners, _id, msg.sender);\n\t}\n\n\t/**\n\t * @notice Check state of certificate is 'ACTIVATED'\n\t * @param _id identifier of certificate\n\t * @return bool\n\t */\n\tfunction isActivated(uint256 _id) public view returns (bool) {\n\t\treturn tokenToState[_id] == State.ACTIVATED;\n\t}\n\n\t/**\n\t * @notice Check state of certificate is 'SELLING'\n\t * @param _id identifier of certificate\n\t * @return bool\n\t */\n\tfunction isSelling(uint256 _id) public view returns (bool) {\n\t\treturn tokenToState[_id] == State.SELLING;\n\t}\n\n\t// ------------------------------ Helper functions (internal functions) ------------------------------\n\n\t/**\n\t * @notice Check list address inclue single address\n\t * @param _array list address\n\t * @param _user\taddress want to check\n\t * @return bool\n\t */\n\tfunction _checkExitInArray(address[] memory _array, address _user)\n\t\tinternal\n\t\tpure\n\t\treturns (bool)\n\t{\n\t\tuint256 _arrayLength = _array.length;\n\t\tfor (uint8 i = 0; i < _arrayLength; i++) {\n\t\t\tif (_user == _array[i]) {\n\t\t\t\treturn true;\n\t\t\t}\n\t\t}\n\t\treturn false;\n\t}\n}\n",
  "sourcePath": "E:\\Desktop\\KLTN MAIN\\landtrade\\contracts\\RealEstate.sol",
  "compiler": {
    "name": "solc",
    "version": "0.5.16+commit.9c3226ce.Emscripten.clang"
  },
  "schemaVersion": "3.0.23",
  "updatedAt": "2020-04-26T02:12:30.011Z",
  "networkType": "ethereum",
  "devdoc": {
    "details": "Real estate management and transaction",
    "methods": {
      "activate(uint256)": {
        "details": "Require msg.sender is owner of certification and msg.sender has not activated Change state of certificate if all owner has activated"
      },
      "activateSale(uint256)": {
        "details": "require current token state is 'ACTIVATED'Require msg.sender is owner of certification and msg.sender has not activated Change state of certificate if all owner has activated"
      },
      "createCertificate(((uint8,uint8,uint8,uint8,string,string,string,string),(string,string,uint8,uint8,string,string,string,string),string,string,string,string),address[])": {
        "details": "Require role notary and list owner does not contain msg.sender"
      },
      "getOwnerApproved(uint256)": {
        "params": {
          "_id": "id of certificate"
        },
        "return": "The list address of the owners approved"
      },
      "getOwnersOf(uint256)": {
        "params": {
          "_id": "The identifier of the certificate"
        },
        "return": "The list address of the owners of the certificate"
      },
      "isActivated(uint256)": {
        "params": {
          "_id": "identifier of certificate"
        },
        "return": "bool"
      },
      "isSelling(uint256)": {
        "params": {
          "_id": "identifier of certificate"
        },
        "return": "bool"
      },
      "transfer(address[],uint256)": {
        "details": "Only notary allowed && msg.sender is not the owner"
      }
    },
    "title": "RealEstate"
  },
  "userdoc": {
    "methods": {
      "activate(uint256)": {
        "notice": "Activate certificate (PENDDING => ACTIVATED)"
      },
      "activateSale(uint256)": {
        "notice": "Activate for sale"
      },
      "createCertificate(((uint8,uint8,uint8,uint8,string,string,string,string),(string,string,uint8,uint8,string,string,string,string),string,string,string,string),address[])": {
        "notice": "create a new certificate with a struct"
      },
      "getOwnerApproved(uint256)": {
        "notice": "Get the owner approved for (sell || activate) depending on state of certificate"
      },
      "getOwnersOf(uint256)": {
        "notice": "Get the owner of a certificate"
      },
      "isActivated(uint256)": {
        "notice": "Check state of certificate is 'ACTIVATED'"
      },
      "isSelling(uint256)": {
        "notice": "Check state of certificate is 'SELLING'"
      },
      "transfer(address[],uint256)": {
        "notice": "Transfer ownership of certificate"
      }
    }
  }
}