{
  "contractName": "RoleBasedAcl",
  "abi": [
    {
      "inputs": [],
      "payable": false,
      "stateMutability": "nonpayable",
      "type": "constructor"
    },
    {
      "anonymous": false,
      "inputs": [
        {
          "indexed": true,
          "internalType": "address",
          "name": "account",
          "type": "address"
        },
        {
          "indexed": false,
          "internalType": "enum RoleBasedAcl.Roles",
          "name": "role",
          "type": "uint8"
        }
      ],
      "name": "RoleAdded",
      "type": "event"
    },
    {
      "anonymous": false,
      "inputs": [
        {
          "indexed": true,
          "internalType": "address",
          "name": "account",
          "type": "address"
        },
        {
          "indexed": false,
          "internalType": "enum RoleBasedAcl.Roles",
          "name": "role",
          "type": "uint8"
        }
      ],
      "name": "RoleRemoved",
      "type": "event"
    },
    {
      "constant": true,
      "inputs": [
        {
          "internalType": "uint256",
          "name": "",
          "type": "uint256"
        }
      ],
      "name": "userAddress",
      "outputs": [
        {
          "internalType": "address",
          "name": "",
          "type": "address"
        }
      ],
      "payable": false,
      "stateMutability": "view",
      "type": "function"
    },
    {
      "constant": true,
      "inputs": [
        {
          "internalType": "address",
          "name": "",
          "type": "address"
        }
      ],
      "name": "userAddressIndexes",
      "outputs": [
        {
          "internalType": "uint256",
          "name": "",
          "type": "uint256"
        }
      ],
      "payable": false,
      "stateMutability": "view",
      "type": "function"
    },
    {
      "constant": false,
      "inputs": [
        {
          "internalType": "address",
          "name": "_account",
          "type": "address"
        },
        {
          "internalType": "enum RoleBasedAcl.Roles",
          "name": "_role",
          "type": "uint8"
        }
      ],
      "name": "addRole",
      "outputs": [],
      "payable": false,
      "stateMutability": "nonpayable",
      "type": "function"
    },
    {
      "constant": false,
      "inputs": [
        {
          "internalType": "address",
          "name": "_account",
          "type": "address"
        },
        {
          "internalType": "enum RoleBasedAcl.Roles",
          "name": "_role",
          "type": "uint8"
        }
      ],
      "name": "removeRole",
      "outputs": [],
      "payable": false,
      "stateMutability": "nonpayable",
      "type": "function"
    },
    {
      "constant": true,
      "inputs": [
        {
          "internalType": "address",
          "name": "_account",
          "type": "address"
        },
        {
          "internalType": "uint8",
          "name": "_role",
          "type": "uint8"
        }
      ],
      "name": "hasRole",
      "outputs": [
        {
          "internalType": "bool",
          "name": "",
          "type": "bool"
        }
      ],
      "payable": false,
      "stateMutability": "view",
      "type": "function"
    },
    {
      "constant": true,
      "inputs": [],
      "name": "getAllAddressAndRole",
      "outputs": [
        {
          "internalType": "address[]",
          "name": "",
          "type": "address[]"
        },
        {
          "internalType": "uint8[]",
          "name": "",
          "type": "uint8[]"
        }
      ],
      "payable": false,
      "stateMutability": "view",
      "type": "function"
    }
  ],
  "bytecode": "0x608060405234801561001057600080fd5b5060016000803373ffffffffffffffffffffffffffffffffffffffff1673ffffffffffffffffffffffffffffffffffffffff16815260200190815260200160002060008060ff16815260200190815260200160002060006101000a81548160ff021916908315150217905550610d618061008b6000396000f3fe608060405234801561001057600080fd5b50600436106100625760003560e01c806344deb6f3146100675780635588d7c3146100b8578063886d0fc01461015f57806395a8c58d146101b75780639674a0ac14610220578063b74866fb1461028e575b600080fd5b6100b66004803603604081101561007d57600080fd5b81019080803573ffffffffffffffffffffffffffffffffffffffff169060200190929190803560ff1690602001909291905050506102df565b005b6100c0610563565b604051808060200180602001838103835285818151815260200191508051906020019060200280838360005b838110156101075780820151818401526020810190506100ec565b50505050905001838103825284818151815260200191508051906020019060200280838360005b8381101561014957808201518184015260208101905061012e565b5050505090500194505050505060405180910390f35b6101a16004803603602081101561017557600080fd5b81019080803573ffffffffffffffffffffffffffffffffffffffff169060200190929190505050610755565b6040518082815260200191505060405180910390f35b610206600480360360408110156101cd57600080fd5b81019080803573ffffffffffffffffffffffffffffffffffffffff169060200190929190803560ff16906020019092919050505061076d565b604051808215151515815260200191505060405180910390f35b61024c6004803603602081101561023657600080fd5b810190808035906020019092919050505061085f565b604051808273ffffffffffffffffffffffffffffffffffffffff1673ffffffffffffffffffffffffffffffffffffffff16815260200191505060405180910390f35b6102dd600480360360408110156102a457600080fd5b81019080803573ffffffffffffffffffffffffffffffffffffffff169060200190929190803560ff16906020019092919050505061089b565b005b60006102eb338261076d565b61035d576040517f08c379a000000000000000000000000000000000000000000000000000000000815260040180806020018281038252601a8152602001807f526f6c65733a204163636f756e74206e6f7420616c6c6f77656400000000000081525060200191505060405180910390fd5b8261036981600061076d565b15801561037e575061037c81600161076d565b155b6103d3576040517f08c379a000000000000000000000000000000000000000000000000000000000815260040180806020018281038252602b815260200180610cb2602b913960400191505060405180910390fd5b60016000808673ffffffffffffffffffffffffffffffffffffffff1673ffffffffffffffffffffffffffffffffffffffff168152602001908152602001600020600085600281111561042157fe5b60ff1660ff16815260200190815260200160002060006101000a81548160ff0219169083151502179055506000600180549050905080600260008773ffffffffffffffffffffffffffffffffffffffff1673ffffffffffffffffffffffffffffffffffffffff1681526020019081526020016000208190555060018590806001815401808255809150509060018203906000526020600020016000909192909190916101000a81548173ffffffffffffffffffffffffffffffffffffffff021916908373ffffffffffffffffffffffffffffffffffffffff160217905550508473ffffffffffffffffffffffffffffffffffffffff167f0ed8a6a6a166243876472f7a8610b62c1a76c67911642d39ff34ead38105534f856040518082600281111561054957fe5b60ff16815260200191505060405180910390a25050505050565b606080606060018054905060405190808252806020026020018201604052801561059c5781602001602082028038833980820191505090505b50905060006002808111156105ad57fe5b60ff16905060008090505b6001805490508160ff1610156106bf5760008090505b828160ff1610156106b15760008060018460ff16815481106105ec57fe5b9060005260206000200160009054906101000a900473ffffffffffffffffffffffffffffffffffffffff1673ffffffffffffffffffffffffffffffffffffffff1673ffffffffffffffffffffffffffffffffffffffff16815260200190815260200160002060008260ff1660ff16815260200190815260200160002060009054906101000a900460ff16156106a45780848360ff168151811061068b57fe5b602002602001019060ff16908160ff16815250506106b1565b80806001019150506105ce565b5080806001019150506105b8565b506001828180548060200260200160405190810160405280929190818152602001828054801561074457602002820191906000526020600020905b8160009054906101000a900473ffffffffffffffffffffffffffffffffffffffff1673ffffffffffffffffffffffffffffffffffffffff16815260200190600101908083116106fa575b505050505091509350935050509091565b60026020528060005260406000206000915090505481565b60008073ffffffffffffffffffffffffffffffffffffffff168373ffffffffffffffffffffffffffffffffffffffff1614156107f4576040517f08c379a0000000000000000000000000000000000000000000000000000000008152600401808060200182810382526022815260200180610cdd6022913960400191505060405180910390fd5b6000808473ffffffffffffffffffffffffffffffffffffffff1673ffffffffffffffffffffffffffffffffffffffff16815260200190815260200160002060008360ff1660ff16815260200190815260200160002060009054906101000a900460ff16905092915050565b6001818154811061086c57fe5b906000526020600020016000915054906101000a900473ffffffffffffffffffffffffffffffffffffffff1681565b60006108a7338261076d565b610919576040517f08c379a000000000000000000000000000000000000000000000000000000000815260040180806020018281038252601a8152602001807f526f6c65733a204163636f756e74206e6f7420616c6c6f77656400000000000081525060200191505060405180910390fd5b3373ffffffffffffffffffffffffffffffffffffffff168373ffffffffffffffffffffffffffffffffffffffff16141561099e576040517f08c379a000000000000000000000000000000000000000000000000000000000815260040180806020018281038252602e815260200180610cff602e913960400191505060405180910390fd5b6109b3838360028111156109ae57fe5b61076d565b610a25576040517f08c379a00000000000000000000000000000000000000000000000000000000081526004018080602001828103825260208152602001807f526f6c65733a204163636f756e7420646f65736e2774206861766520726f6c6581525060200191505060405180910390fd5b60008060008573ffffffffffffffffffffffffffffffffffffffff1673ffffffffffffffffffffffffffffffffffffffff1681526020019081526020016000206000846002811115610a7357fe5b60ff1660ff16815260200190815260200160002060006101000a81548160ff0219169083151502179055506000600260008573ffffffffffffffffffffffffffffffffffffffff1673ffffffffffffffffffffffffffffffffffffffff16815260200190815260200160002054905060008190505b6001808054905003811015610c0e57600180820181548110610b0657fe5b9060005260206000200160009054906101000a900473ffffffffffffffffffffffffffffffffffffffff1660018281548110610b3e57fe5b9060005260206000200160006101000a81548173ffffffffffffffffffffffffffffffffffffffff021916908373ffffffffffffffffffffffffffffffffffffffff160217905550806002600060018481548110610b9857fe5b9060005260206000200160009054906101000a900473ffffffffffffffffffffffffffffffffffffffff1673ffffffffffffffffffffffffffffffffffffffff1673ffffffffffffffffffffffffffffffffffffffff168152602001908152602001600020819055508080600101915050610ae8565b506001805480610c1a57fe5b6001900381819060005260206000200160006101000a81549073ffffffffffffffffffffffffffffffffffffffff021916905590558373ffffffffffffffffffffffffffffffffffffffff167f3824b64a1e23d936b458f4e31445c664d2bc9c14e842407917cbc100b0236a2f8460405180826002811115610c9857fe5b60ff16815260200191505060405180910390a25050505056fe526f6c65733a20416e206163636f756e742073686f756c642068617665206f6e6c79206f6e6520726f6c65526f6c65733a206163636f756e7420697320746865207a65726f2061646472657373526f6c65733a20556e61626c6520746f2072656d6f766520737570657261646d696e20726f6c6520697473656c66a265627a7a72315820abd65703a27a44c0b6a3f2ce8a9464ebdbc88af0c9babe5b3b6cd7e6c253b38a64736f6c63430005100032",
  "source": "pragma solidity >=0.4.21 <0.7.0;\n\n\n/**\n * @title RoleBasedAcl (Roles-based access control)\n * @dev Contract managing addressed role based access control\n */\n\ncontract RoleBasedAcl {\n\n\tenum Roles {SUPER_ADMIN, NOTARY, LAST_INDEX} \t//SUPER_ADMIN: 0, NOTARY: 1, LAST: number value of enum\n\tmapping(address => mapping(uint8 => bool)) roles; \t//address => Role(uint8) => bool\n\t// For read all user role in contract\n\taddress[] public userAddress;\n\tmapping(address => uint) public userAddressIndexes;\n\t// event add and remove role\n\tevent RoleAdded(address indexed account, Roles role);\n\tevent RoleRemoved(address indexed account, Roles role);\n\n\tconstructor() public {\n\t\troles[msg.sender][0] = true;\t// set deployer is 'superadmin'\n\t}\n\n\t/**\n\t * @notice Assign a role to address\n\t * @dev require msg.sender is superadmin && account is empty role\n\t * @param _account address\n\t * @param _role the name of the role\n\t */\n\tfunction addRole(address _account, Roles _role) external onlyRole(0) emptyRole(_account){\n\t\t// require(_account != msg.sender, \"Roles: Superadmin don't have any other roles\");\n\t\t// require(!hasRole(_account, _role), \"Roles: account already has role\");\n\t\troles[_account][uint8(_role)] = true;\n\t\tuint id = userAddress.length;\n\t\tuserAddressIndexes[_account] = id;\n\t\tuserAddress.push(_account);\n\t\temit RoleAdded(_account, _role);\n\t}\n\n\t/**\n\t * @notice remove a role from an address\n\t * @dev require msg.sender = superadmin\n\t * @param _account address\n\t * @param _role the name of the role\n\t */\n\tfunction removeRole(address _account, Roles _role) external onlyRole(0) {\n\t\trequire(_account != msg.sender, \"Roles: Unable to remove superadmin role itself\");\n\t\trequire(hasRole(_account, uint8(_role)), \"Roles: Account doesn't have role\");\n\t\troles[_account][uint8(_role)] = false;\n\t\tuint id = userAddressIndexes[_account];\n\t\tfor (uint i = id; i<userAddress.length-1; i++){\n            userAddress[i] = userAddress[i+1];\n            userAddressIndexes[userAddress[i]] = i;\n        }\n        userAddress.pop();\n\t\temit RoleRemoved(_account, _role);\n\t}\n\n\t/**\n\t * @dev determine if addr has role\n\t * @param _account address\n\t * @param _role the name of the role\n\t * @return bool\n\t */\n\tfunction hasRole(address _account, uint8 _role) public view returns (bool) {\n\t\trequire(_account != address(0), \"Roles: account is the zero address\");\n\t\treturn roles[_account][_role];\n\t}\n\n\t// /**\n\t//  * @dev reverts if addr does not have role\n\t//  * @param _account address\n\t//  * @param _role the name of the role\n\t//  */\n\t// function checkRole(address _account, string memory _role) public view {\n\t// \trequire(hasRole(_account, _role), \"Roles: Account does not have role\");\n\t// }\n\n\t/**\n\t * @dev modifier to scope access to a single role (uses msg.sender as addr)\n\t * @param _role the name of the role\n\t */\n\tmodifier onlyRole(uint8 _role) {\n\t\trequire(hasRole(msg.sender, _role), \"Roles: Account not allowed\");\n\t\t_;\n\t}\n\n    modifier emptyRole(address _address) {\n        require(!hasRole(_address, 0) && !hasRole(_address, 1),\n        \"Roles: An account should have only one role\");\n        _;\n    }\n\n    /**\n     * @notice Get list user and role\n\t * @return address[], uint8[]\n     */\n    function getAllAddressAndRole() external view  returns( address[] memory, uint8[] memory ) {\n\t\tuint8[] memory listRole = new uint8[]( userAddress.length );\n\t\tuint amountRoles = uint8(Roles.LAST_INDEX);\n\t\tfor( uint8 i = 0 ; i < userAddress.length; i++ ){\n            for( uint8 j = 0 ; j < amountRoles ; j++ ){ \t// number roles 2 = {SUPER_ADMIN, NOTARY}\n                if( roles[userAddress[i]][j] ){\n\t\t\t        listRole[i] = j;\n                    break;\n\t\t\t    }\n            }\n\t\t}\n\t\treturn ( userAddress, listRole );\n\t}\n}\n",
  "sourcePath": "E:\\Desktop\\KLTN MAIN\\landtrade\\contracts\\RoleBasedAcl.sol",
  "compiler": {
    "name": "solc",
    "version": "0.5.16+commit.9c3226ce.Emscripten.clang"
  },
  "schemaVersion": "3.0.23",
  "updatedAt": "2020-04-14T11:28:35.284Z",
  "networkType": "ethereum",
  "devdoc": {
    "details": "Contract managing addressed role based access control",
    "methods": {
      "addRole(address,uint8)": {
        "details": "require msg.sender is superadmin && account is empty role",
        "params": {
          "_account": "address",
          "_role": "the name of the role"
        }
      },
      "getAllAddressAndRole()": {
        "return": "address[], uint8[]"
      },
      "hasRole(address,uint8)": {
        "details": "determine if addr has role",
        "params": {
          "_account": "address",
          "_role": "the name of the role"
        },
        "return": "bool"
      },
      "removeRole(address,uint8)": {
        "details": "require msg.sender = superadmin",
        "params": {
          "_account": "address",
          "_role": "the name of the role"
        }
      }
    },
    "title": "RoleBasedAcl (Roles-based access control)"
  },
  "userdoc": {
    "methods": {
      "addRole(address,uint8)": {
        "notice": "Assign a role to address"
      },
      "getAllAddressAndRole()": {
        "notice": "Get list user and role"
      },
      "removeRole(address,uint8)": {
        "notice": "remove a role from an address"
      }
    }
  }
}